:1000000000000120E14F0000195000001B500000CB
:100010001D5000001F500000215000002350000020
:10002000000000000000000000000000255000005B
:10003000275000000000000029500000A1500000DF
:100040002F5000002F5000002F5000002F500000B4
:100050002F5000002F5000002F5000002F500000A4
:100060002F5000002F5000002F5000002F50000094
:100070002F5000002F5000002F5000002F50000084
:100290002F5000002B5000002D5000002F50000068
:1002A0002F5000002F5000002F5000002F50000052
:1002B0002F5000002F5000002F5000002F50000042
:1002C0002F5000002F5000002F5000002F50000032
:1002D0002F5000002F5000002F5000002F50000022
:1002E0002F5000002F5000002F5000002F50000012
:1002F0002F5000002F5000002F5000002F50000002
:100300002F5000002F5000002F5000002F500000F1
:100310002F5000002F5000002F5000002F500000E1
:100320002F5000002F5000002F5000002F500000D1
:100330002F5000002F5000002F5000002F500000C1
:100340002F5000002F5000002F5000002F500000B1
:100350002F5000002F5000002F5000002F500000A1
:100360002F5000002F5000002F5000002F50000091
:100370002F5000002F5000002F5000002F50000081
:100380002F5000002F5000002F5000002F50000071
:100390002F5000002F5000002F5000002F50000061
:1003A0002F5000002F50000081500000915000009D
:1003B0002F5000002F5000002F5000002F50000041
:1003C0002F5000002F5000002F5000002F50000031
:1003D0002F5000002F5000002F5000002F50000021
:1003E0002F5000002F5000002F5000002F50000011
:1003F0002F5000002F5000002F5000002F50000001
:1004000010B5054C237833B9044B13B1044800E010
:1004100000BF0123237010BD680000200000000011
:100420002C53000008B5034B1BB10349034800E0FF
:1004300000BF08BD000000006C0000202C5300002D
:10044000034613F8012B002AFBD1181A0138704714
:1004500010B5044668B10749074804F060FD21461D
:10046000054804F05CFDBDE810400449024804F072
:1004700056BD10BD5453000000060020F454000087
:1004800038B54FF4E1313C4804F0B4FC4FF4AF70A0
:1004900004F056FE3949384804F041FD002201219C
:1004A000374800F07DFF0121354800F0A7FF3549AE
:1004B0003548002201F06DFA0021334804F0A4FA17
:1004C00000284FD1314900242B4804F028FD304B3F
:1004D0001C703049284804F022FD2F4B2F49264834
:1004E000002C08BF194604F01AFD2D49224804F0DB
:1004F00016FDBDE838402B491F4804F010BD01220D
:100500002949214801F030F908B92849DBE7284991
:100510001D4801F0CEF908B92649D4E726491A4802
:1005200001F0B2F81A4D044628B92449124804F0E3
:10053000F6FC2C70CDE76021134801F0BCF80446AE
:1005400008B91F49F2E7012300211E482B7000F073
:1005500088FFBEE700210C4801F0EDF80028CED15D
:100560001949B0E701221949074801F05EF900284E
:10057000F0D11749A7E700BF00060020655300002F
:10058000B655000051040000980000208A53000076
:1005900084000020B2540000605300005D5300004E
:1005A000F4540000BD540000C7530000075400007D
:1005B000F95300003F5400002D5400006654000021
:1005C0008B540000F0050020D0530000B855000007
:1005D000A35300002DE9F041A94B92B01B7883B9D9
:1005E00004F082FDA74A1368C31AB3F5FA6F04D367
:1005F0001060A549A54804F092FC0A2004F0A0FD73
:1006000038E1A34801F085F9002835D1A14C2378C1
:1006100043B1A14B20701870A04BA14918709B48A2
:1006200004F07DFC0D2200210AA804F01AFE9D4B67
:100630004FF4AF72009396489B4B0AA903F09CF9C4
:100640009DF82B3053B1012300222370934B1A7075
:100650000121964800F0D2FE0120CFE704F044FDCE
:10066000934A1368C31AB3F5FA6FF1D31060914936
:10067000864804F054FCEBE71C22002103A804F098
:10068000F0FD03A98C4A824803F0A2FA834E054686
:10069000317800293DD100283BD09DF80C30002B4B
:1006A00037D020220AA804F0DCFD79480AA901F01D
:1006B00040F9002800F0E1808049744804F02FFCE4
:1006C0000524DFF8C8810DF12D0717F801390F2B2C
:1006D00003D83021404604F024FC102240467978AB
:1006E00004F040FC1CB13A21404604F01AFC013CE5
:1006F000EBD27349654804F012FCBDF838100A22A9
:10070000624804F04DFC6F49604804F008FC012386
:1007100033705F4801F000F95F4F04463B78834235
:100720001ED069493870594804F0F9FB6749684B95
:100730005648002C08BF194604F0F1FB65B19DF83E
:100740000C304BB16349514804F0E9FB0A22BDF873
:1007500016104E4804F024FC5A494C4804F0DFFBC4
:10076000002D7ED09DF80C30002B6ED09DF80D3002
:10077000002B6AD09DF80E30002B66D09DF8123009
:10078000002B62D05449414804F0C9FB9DF81B304E
:100790000F2B03D830213D4804F0C3FB10229DF8F5
:1007A0001B103A4804F0DEFB4C49384804F0B7FB14
:1007B0000A229DF81010354804F0F2FB48493348EE
:1007C00004F0ADFB0A229DF81410304804F0E8FB59
:1007D00044492E4804F0A3FB0A229DF81E102B4822
:1007E00004F0C0FB4049294804F099FB0A229DF817
:1007F0001F10264804F0B6FB9DF81E30032B16D1BF
:10080000099BA3B19DF81F308BB138491F4804F0F4
:1008100086FB099B1B780F2B03D830211B4804F063
:1008200080FB099B10221978184804F09BFB29498A
:10083000164804F074FBBDF816100A22134804F0A1
:10084000AFFB2049114804F06AFB9DF8113043B119
:1008500027490E4804F063FB00230E4A3B701370D7
:10086000337084F001011148C9B200F0C7FD002DBA
:100870003FF4F2AE12B0BDE8F0811E4944E700BF7C
:100880008400002090000020FE540000000600209C
:10089000980000208C0000208D0000209400002093
:1008A0002755000060AE0A0030570500B65500001D
:1008B0008800002036550000D0DD060044550000B9
:1008C00054550000F45400005A550000F75400003D
:1008D000FA540000665500006B5500007955000081
:1008E0007F55000087550000915500009A55000083
:1008F000A45500002A55000010B5064A06490748CD
:1009000000F0B8FDBDE81040054A064B1146064808
:1009100000F0A2BD00C0FF0000A008509800002019
:1009200000E0105000001250F005002000687047F1
:1009300010B10170090A41707047043270B502EBC2
:10094000001001F110050A46031F13F8016B14781B
:10095000834284EA060402F8014BF6D10431A9422D
:1009600003F10400EFD170BD421E031D002030B51D
:1009700000F1080412F8015FE4B224280BD815F046
:10098000010F02D051B10139C9B20130C0B2844265
:100990004FEA5505F1D19342EAD1002030BD030959
:1009A00043EA0010C0F38503800000F0CC0003F0A0
:1009B0003303034358085B0003F0AA0300F055001B
:1009C00018437047B0B10023C0F80032C0F80432B9
:1009D000C0F80832C0F80C32C0F81432C0F818322F
:1009E000C0F81C32C0F82032C0F82C32C0F83032C7
:1009F000C0F8BC327047112203681B681A70036884
:100A000042681B6812785A70202203681B689A702B
:100A10000322836801201B681A7070471122036843
:100A20001B681A70036842681B6812785A701A2291
:100A300003681B689A700322836801201B681A7080
:100A40007047112203681B681A70036842681B68AC
:100A500012785A70062203681B689A700322836812
:100A600001201B681A707047112203681B681A70F6
:100A7000036842681B6812785A700C2203681B686E
:100A80009A700322836801201B681A707047112234
:100A900003681B681A70036842681B6812785A70F2
:100AA000232203681B689A700322836801201B6855
:100AB0001A707047084B01449A420CBF074A5A40CB
:100AC00082EA423282EA524282EA421200F8012B62
:100AD0008142F5D1704700BF5AA55AA5B53B121FF8
:100AE0008379012B0FD8437B012B0CD890F8283049
:100AF000073B092B07D800F10E021E3012F8013B0C
:100B00001BB98242FAD1002070470120704730B5EE
:100B1000431E0139013A0F3013F8014F11F8015FFC
:100B2000834284EA050402F8014FF5D130BD002369
:100B30000146184610B5DA108A5C03F00704E2405B
:100B4000D20748BF421C03F1010348BFD0B2252B96
:100B5000F1D110BD0023026882F8043482F8013418
:100B6000A2F80234026882F80534026882F806347A
:100B700070470B2919D0132920D1012332EA03032E
:100B80001CD10B29036812D102F00202002A14BF03
:100B90000121002114D093F8FC2312B9012283F81B
:100BA000FD2383F8FC13012070470223E6E702F0DF
:100BB000010283F8FF2383F80024F4E70020704744
:100BC00083F8FD2383F8FE23EBE738B5144605468A
:100BD00002680B4610682146FFF7AAFE06212A6824
:100BE000126891700021D1702A6819461068224657
:100BF000043004F029FB6B6804341B6801201C706E
:100C000038BDF8B51546044610220E462846002188
:100C100004F027FB2B46012204F1080703F8012BFF
:100C2000224603CABA4218605960144603F1080309
:100C3000F6D1106876BA186012791A71EE81F8BD93
:100C4000F8B50E461446054640B122B304F052FAF8
:100C500020230746D5F81C220AB10120F8BDD5F89B
:100C60001822002AF9D1013B13F0FF0301D166B924
:100C70002023013CEED1D5F81C32002BEDD1D5F864
:100C80001802003818BF0120E8E704F033FAC31B4C
:100C9000B342EDD3EFE71046E0E7F8B50D46044662
:100CA00058B104F027FA40F2ED2706462023013D13
:100CB00004D2D4F82032A3B10120F8BDD4F8202208
:100CC000002AF9D1D4F820251207F5D0013B13F002
:100CD000FF03ECD104F00EFA801BB842E9D82023C0
:100CE000E5E7D4F8203513F00F0F0CBF01200020EA
:100CF000E3E700F11003013913F8012D834201F8F5
:100D0000012FF9D1704700004FF0FF30002230B5BD
:100D1000094C0A4D14F8013B5840082340F30001E8
:100D2000013B294013F0FF0381EA5000F6D1013264
:100D30002C2AEFD1C04330BD8C0600202083B8EDB3
:100D400038B5049C5BB164B1012558701D70981CC6
:100D5000FFF7EEFD1A7105232846238038BD18469B
:100D6000FCE72046FAE7012203681B681A71036852
:100D700042681B6812785A7103681A6802239371DB
:100D80000023D371026812681372537206228368BB
:100D90001A7070472DE9F04F00240E46C1B004A927
:100DA00008AD9146CDE90444CDE90644CDE90844B7
:100DB000CDE90A44CDE90C44CDE90E44FFF799FF93
:100DC00029463046FFF795FFAC22214615A814941A
:100DD00004F047FA14A910238A46CDE91044CDE95E
:100DE000124404AA12F8010B013B13F0FF0301F8AF
:100DF000010BF7D10393012210239A489A4F17ACA5
:100E000003AEB446A64604211EF8018B013911F049
:100E1000FF010CF8018BF7D119071CD19DF80CC00C
:100E20009DF80D1010F80CC09DF80FE09DF80E8095
:100E3000415C8DF80FC017F802C010F8088010F858
:100E40000EE081EA0C0101328DF80D808DF80EE084
:100E50008DF80C10D2B203F1040E1FFA8EFE0DF5C0
:100E6000807C9C4416F8011B1CF8C08C01339BB29B
:100E700081EA080173450CF8B01CF0D1B02B04F1E5
:100E80000404BDD110AC95E80F0084E80F00524671
:100E900021460020FFF751FD4FF0010800230022FA
:100EA000E11808786F4D0132285C042A01F8040B20
:100EB000F7D10133042BF2D19DF845209DF8413044
:100EC0008DF841209DF8492026468DF845209DF853
:100ED0004D208DF84D308DF849209DF84A209DF821
:100EE00042308DF842209DF84E208DF84A309DF812
:100EF00046308DF846209DF84F208DF84E309DF8F5
:100F000043308DF843209DF84B208DF84F209DF8FD
:100F100047208DF8473000238DF84B20019333781C
:100F200096F801E096F802C0F77883EA0E058CEA9D
:100F3000070185EA010080EA450BED096A001544C6
:100F400083EA0B0B05EBC5058BEA050535708EEAC8
:100F50000C0580EA450BED098EEA0B0E4FEA450BB6
:100F60005D4405EBC5058EEA0505757080EA41050F
:100F7000C9098CEA050C4D007B40294401EBC101F5
:100F800080EA4300DB098CEA010C59000B4447401E
:100F900003EBC3037B40F370019B86F802C001336F
:100FA000042B019306F10406B9D1404608F101086B
:100FB000524621465FFA88F8FFF7BFFCB8F10A0FE6
:100FC0007FF46CAF002327480022E1180D7801322E
:100FD000455D042A01F8045BF8D10133042BF3D1F9
:100FE0009DF845209DF841308DF841209DF849201D
:100FF00021468DF845209DF84D208DF84D308DF817
:1010000049209DF84A209DF842308DF842209DF8F5
:101010004E208DF84A309DF846308DF846209DF8D8
:101020004F208DF84E309DF843308DF843209DF8C9
:101030004B200CAD8DF84F209DF847200A208DF8ED
:101040004B2052468DF84730FFF777FC94E80F00AD
:1010500085E80F0028464946FFF74BFE012041B0C6
:10106000BDE8F08F595600004E5600002DE9F04FB4
:101070009A46002391B0CDE90033CDE90233CDE9A2
:101080000833CDE90A3349231546074688460A4600
:101090009DF868B0DDF86C908DF8103001F108060D
:1010A0000DF11103144603CCB44218605960224676
:1010B00003F10803F6D120686E46186022790024F7
:1010C0001A71304608AA04A98DF81E408DF81FB089
:1010D000FFF71DFD3246384608A9FFF75BFE0028E2
:1010E0005CD0102221460DEB020004F0BAF84FF458
:1010F0008073304608AA04A925F01C05ADF810300D
:101100008DF81250FFF703FD3246384608A9FFF765
:1011100041FE002842D0A3451FD91022ABEB0405A5
:10112000EDB200210DEB020004F09BF8102D28BF5A
:1011300010250AEB04012A4604A804F085F830467D
:1011400008AA04A9FFF7E3FC3246384608A9FFF7CE
:1011500021FE18B32C44E4B2DDE70021404604AA86
:10116000CDE90C11CDE90E11FFF74BFD38460CAA65
:1011700004A9FFF70FFE88B16C4609F1FF320CABF2
:1011800009F1030914F8011B13F8015B694002F827
:10119000011F4A45F6D111B0BDE8F08F0020FAE7F3
:1011A000F0B5002405468DB008469DF84810CDE9FD
:1011B00004448DF800109DF85010CDE906448DF8D8
:1011C00001101168CDE90844CDF802109188927998
:1011D000ADF806108DF808201A686946CDF8092088
:1011E0009A889B79ADF80D2008AACDE90A44139E90
:1011F000159F8DF80F30FFF78AFC08AA1146284684
:10120000FFF7C8FDA8B1BB883868ADF81430336863
:1012100008AACDF81630B388049004A91046ADF89A
:101220001A300794FFF773FC2846169A08A9FFF7AF
:10123000B1FD0DB0F0BD2DE9F04F8FB09DF86840C5
:101240008246032CDDF86480DDF86CB003D9043CE1
:10125000E4B21B2C01D900205FE000274FF0010908
:101260003D4603F07F038DF80C300B680292CDF8F9
:101270000D304B680AAECDF81130BC422FD9324642
:10128000494602A8CDE90655CDE90855CDE90A55EC
:10129000CDE90C55FFF7B5FC3146504606AAFFF7DD
:1012A00079FD002839D0E31BDBB2102B28BF1023B7
:1012B0003A4606A9D01BC0B2834209D918F802C029
:1012C00011F8010B80EA0C000BF802000132F1E783
:1012D0001F4409F10109FFB21FFA89F9CDE75B4606
:1012E0005046CDE900469DF8602002A90A95FFF717
:1012F000BDFE0028AFD004230022A04416F8011B35
:1013000018F8015B013B694013F0FF0342EA010258
:10131000F4D1002A9FD11C9B1C700FB0BDE8F08F48
:101320000378022B05D840781F288CBF00200120AD
:101330007047002070470000174B10B5D3F80C44DD
:10134000C4F30042E40301D5012010BDC3F800211D
:10135000C3F81021C3F8182101221A600028F3D025
:101360000E4A002908BF1146D3F80C24D203EBD44F
:10137000D3F80021002AE7D1D3F810010028E3D1E7
:10138000D3F818210139002ADFD10029ECD1D3F894
:101390000C04C0F30040D8E700E0105040420F00BA
:1013A000F8B505460F461446FFF7BAFFF0B12B78A3
:1013B000022B1CD8104A52F82330D3B101266A7888
:1013C00003F1800505EB820596402A68012F22F083
:1013D0000F024FEA840408BF42F0030204F00C0439
:1013E00044EA02040CBF5E619E612C60F8BD0020DF
:1013F000FCE71846FAE700BFCC55000038B50446B4
:101400000D46FFF78DFF78B12378022B0DD8094ADE
:1014100052F823305BB101226178002D02FA01F20B
:1014200014BF042108215A5038BD0020FCE718469B
:10143000FAE700BFCC550000012810B5044603D0E0
:1014400002280CBF0220002003F056FB014B0120B4
:101450001C7010BDFC05002010B5C0E900128360AF
:1014600010BD012918BF012203680CBF19635A631C
:1014700070470000F8B500251F2704462726804B3B
:10148000C0E9001283603A4629460573C0F80D5042
:10149000A0F81150133003F0E4FE3A462946656384
:1014A00004F1380003F0DDFE32462946A56504F15B
:1014B0005C0003F0D6FE3246FF26294604F1840084
:1014C00003F0CFFE294640F2011204F1AC0003F014
:1014D000C8FE3246294604F5D87003F0C2FE172331
:1014E000A4F8E2324FF0011332461026C4F8E43279
:1014F0002946C4E9AE55C4E9B355C4E9B55584F8E5
:10150000AF52C4F8B052A4F8B45284F8B652C4F83A
:10151000C052A4F8C452C4F8C65284F8CA5284F81F
:10152000CB52C4F8DC5284F8E05284F8E85204F25A
:10153000E92003F096FE32462946C4F80854C4F860
:101540000F5484F8E853A4F8EA53C4F8EC53A4F811
:10155000F05384F8F253A4F8F453C4F8F65384F823
:10156000FA5384F8FB53C4F8FC53C4F80054A4F8AD
:101570000454A4F80654C4F80B54C4F8125404F2EA
:10158000164003F06EFE3246294604F2264003F070
:1015900068FE3246294604F2364003F062FE3246C7
:1015A000294604F2464003F05CFE0023002204F5C5
:1015B0008C61A4F85654C4F8585484F85C54C1E9BA
:1015C000002304F58D61C1E9002304F27140324625
:1015D000294684F8705403F044FE3246294604F24A
:1015E000814003F03EFE3A462946C4F89154C4F8BF
:1015F000955484F8995484F89A5404F29B4003F06B
:1016000030FE29462C22C4F8BC54C4F8C054C4F897
:10161000C454C4F8C85404F2CC4003F022FE32464D
:101620002946A4F8F85484F8FA54C4F8FC54C4F8D1
:101630000055C4F8045504F5A16003F012FE4FF400
:1016400080133A46C4F820352946C4F81855C4F822
:101650001C5584F8245504F2255003F002FE094B72
:101660002046C4F848354FF0FA73C4F84C3564236B
:1016700084F84455A4F8465584F85035F8BD00BFA9
:10168000000102011800280070B506460C46084605
:1016900071B1FEF7D5FE1F2805460AD828B10246CB
:1016A000214606F2255003F0CFFD012086F844556F
:1016B00070BD0020FCE76429034613D890F850253C
:1016C0008A4201D10120704790F8AF2280F850156E
:1016D000002AF7D090F8FF030028F3D0012283F806
:1016E0000024704700207047426B10B5911D2529DA
:1016F0001FD8837AC47A03F00F030CB143F02003A0
:10170000447A80F85D10012C08BF43F0400380F854
:101710005C30034653F80D1FC0F85E109B88A0F89C
:10172000623022B100F11301643003F08DFD01201D
:1017300000E0002010BD0F2902D88172FFF7D4BF4E
:10174000002070471F2A38B5044615460AD81AB13A
:1017500041B1133003F078FD20466563BDE83840A1
:10176000FFF7C2BF002038BDF0B5074614460E464D
:1017700089B019B90024204609B0F0BD3AB14FF440
:101780008173ADF80030062303248DF80230304613
:10179000FEF756FEC4F11F03821C9A4205468ABF1B
:1017A00008220922C4F11D0508AB2344691C03F873
:1017B000201C023403F81F2C35B10DEB04002A461F
:1017C000314603F041FD2C44224669463846FFF776
:1017D000B9FF04460028CDD097F84435002BCAD174
:1017E00031463846FFF750FFC5E7826D08B5931DB7
:1017F000252B18D8417A80F88530012914BF04219F
:101800004421034680F8841053F80D1FC0F8861059
:101810009B88A0F88A3022B100F138018C3003F0A7
:1018200013FD012000E0002008BD10B50446A1B161
:101830000B68012AC0F80D308B884272A0F8113075
:1018400002BF837C63F03F038374FFF74DFF20B139
:101850002046BDE81040FFF7C8BF002010BD436818
:1018600013B593B1D3F8A443D3F8A8230094ADF8EB
:101870000420D3F8A02331B902F001026946FFF732
:10188000D4FF02B010BD0122F8E71846F9E71F2A7D
:1018900038B5044615460AD81AB141B1383003F0BC
:1018A000D3FC2046A565BDE83840FFF79EBF002069
:1018B00038BD70B505460C46084688B0D9B1FEF76C
:1018C000BFFD861C1F2E024617D940F61E0304F1E9
:1018D0001C02ADF800300DF1020354F8041B9442D1
:1018E00043F8041BF9D11F2622781A703246694644
:1018F0002846FFF7CCFF08B070BD431C8DF80030C0
:10190000092321460DF102008DF8013003F09CFC03
:10191000ECE790F8AF027047034690F8AF0238B199
:1019200093F8570420B193F8580408B193F8590478
:101930007047034659B390F8AF0248B3D3F8B022CA
:101940000A60B3F8B4228A8093F8B6228A71D3F879
:10195000B8228A60D3F8BC22CA60B3F8C0220A82D7
:10196000B3F8C2224A82B3F8C4228A82D3F8C622CC
:10197000C1F8162093F8CA228A7693F8CB22CA7649
:1019800093F8CC220A7793F8D0324B777047084609
:101990007047C0F8FC14C0F8002570472DE9F041ED
:1019A00005460C4616461F4688B0002B78D04FF0EF
:1019B00000081B22414601A8CDF8008003F051FC2D
:1019C000601E12286CD8DFE800F00A101835373A8C
:1019D0003C4447494D6B6B6B6B595C5E64004FF444
:1019E000C053ADF80030022410E040F202330093FF
:1019F0002A2305248DF8043008E095F844452CB1DD
:101A00002246684605F2255103F01EFCB44249D334
:101A10009DF83820A41BE4B2944228BF14462CB190
:101A2000224638460DEB060103F00EFC204608B0B6
:101A3000BDE8F0811C4BDAE7B5F84635D1E71B4B22
:101A4000D5E7D5F8483508240093D5F84C350193EF
:101A5000DCE741F60103C4E7154BC8E7154B042446
:101A60000093D3E795F8FC33002B14BF0223002327
:101A70008DF8003000238DF80130B4E741F60F03F4
:101A8000AFE70D4BB3E795F8503501248DF80030E2
:101A9000BCE795F8FF338DF801808DF80030A2E7A0
:101AA000FF24C3E7FE24C1E702050001020700048A
:101AB000200A00050100FFFF121200192DE9F04F66
:101AC00097B0804614461D460F46209E002900F020
:101AD0000F84002B00F00E84002E00F00D84002AED
:101AE00059D0B0F8E202002800F06A8317280346B4
:101AF00028BF172302930023012888BF029A087881
:101B000083BF02F1FF32D2B2059205931E28CDE9C0
:101B10000988338023D8012824D9831E1C2B21D87F
:101B2000DFE813F0250020003D00200083002000A6
:101B30003A012000380220005D02200088022000C7
:101B4000D70020008D03200020002000D4022000B8
:101B50003D032000200020002000200086035228A2
:101B600000F0A4832B4606220021009606E0022CFA
:101B700007D82B460422002102200096FFF7E0F848
:101B80001EE317220323A8F8E2226A7000222B70BA
:101B9000AA7033800124204617B0BDE8F08F042CD2
:101BA00005D82B460422002100960420E6E78B7816
:101BB0004C7854EA032406D00B7991F8038048EA64
:101BC0000328444504D92B46012200962146ECE720
:101BD00005232B70012300226B70029B9146A3F119
:101BE000020A0223B94FCAF38F0A39888C420FD8F0
:101BF00088450DD3924512D9E818FEF799FE981C36
:101C000079882844FEF794FE043301329BB292B2E5
:101C100009F10109B9F10F0F07F10407E5D1002A15
:101C2000B7D12B460A220096D0E7082C05D82B46C0
:101C30000422002100960620A0E78B7891F801800D
:101C400058EA032806D00B7991F8039049EA032952
:101C5000C84504D92B46012200964146EBE78A7914
:101C60004B7943EA0223B3F5205F01D1092C03D05D
:101C70002B460A220096F0E70B7ACF79002447EA38
:101C8000032707232B70029B914A03F1FF3A01239C
:101C9000CAF38F0A02F1120B9188B94212D111884E
:101CA00088450FD889450DD3A2450ED9E818FEF70F
:101CB0003FFE981C51882844FEF73AFE0134043355
:101CC0009BB2A4B206325A45E6D1002C7FF461AF34
:101CD000CEE7062C05D82B460422002100961020C2
:101CE0004CE78B7891F8018058EA032806D00B79ED
:101CF00091F8039049EA0329C84504D92B460122EB
:101D000000964146EBE7601F82B2022A05D0102AF6
:101D10002B4618BF04220096F3E789797B7943EAC2
:101D20000123B3F5205F03D02B4610220096E8E78D
:101D300011232B70062302996B70A1F1020ABAFBE2
:101D4000F3FA00239B46624F1FFA8AFA39888845C6
:101D500014D8894512D39A4517D9A818FEF7E8FD7B
:101D6000901C79882844FEF7E3FD101DB9882844AB
:101D7000FEF7DEFD0632013392B29BB20BF1010B8E
:101D8000BBF1030F07F10607E0D11BB92B460A226E
:101D90000096B6E73280FDE6062C05D82B460422D5
:101DA000002100960820E9E68B7891F8019059EA25
:101DB000032906D00A79CB7843EA02239945039395
:101DC00004D92B46012200964946EBE78A794B79E4
:101DD00043EA022309222A7042F60302934233D1D6
:101DE00007220027029B0224023BB3FBF2F3B84612
:101DF0006A70384A9BB21188894517D8039888427F
:101E000014D3BB4219D92819FEF792FD91780137F6
:101E10008170E01C91882844FEF78AFD601DD188FE
:101E20002844FEF785FD0734A4B2BFB208F10108CB
:101E3000B8F1050F02F10802DDD1002F40F0AD81AD
:101E40002B460A220096BFE7B3F5205F24D1002776
:101E5000042302243A466B70029BA3F102081C4B38
:101E6000C8F38F081988894510D8039888420DD384
:101E7000B845E2D92819FEF75BFDA01C99882844D3
:101E8000FEF756FD04340137A4B2BFB20132032A73
:101E900003F10603E6D1D0E70022B3F5285FCDE9D0
:101EA0000B220D9205D103234FF0010AADF82C301F
:101EB00020E042F60122934201D10523F4E742F6E5
:101EC0000422934208D10723EEE700BFD855000053
:101ED0003C5600001456000042F60522934201D100
:101EE0000A23E1E742F60212934242D14FF0020A7E
:101EF000B44B0B934FF0000B02245F46CDF818B0A3
:101F00000BAB33F81B30994504933CD8DDE9033221
:101F1000934238D300231B2219460FA80E9303F0D7
:101F2000A0F9059B00220093404604990EABFFF7F1
:101F300035FDFD28024626D8831CDBB2022B22D0B9
:101F40000699E9B96B700693069B0299E3188B42D8
:101F500007933FF772AF28190499FEF7E9FCA01C1C
:101F60000EA9284403F070F9079B01379CB2BFB259
:101F700009E042F6192293427FF462AF122393E7FD
:101F800006998B42E0D00BF1010B5FFA8BF39A4577
:101F9000B6D852E7022C05D82B4604220021009621
:101FA0000A20EBE589787C7854EA012404D12B4699
:101FB000012200962146F3E72B460B2203F8012B62
:101FC000059A2146009240460022FFF7E7FCFF28D1
:101FD000EDD0FE282BD12B4607220096EAE7042CF1
:101FE00005D82B460422002100960C20C6E58978EE
:101FF0007C7854EA012404D12B4601220096214624
:10200000F3E72B460D203979FA7803F8010B059890
:1020100042EA0122009021464046FFF7BFFCFF281C
:10202000EAD0FE2803D12B4607220096E7E70130CD
:102030003080AFE5042C02D914F0010904D12B46FD
:1020400004220096002124E00F234FF0000A601EB6
:102050002B70C0F34F04B97897F801B05BEA012BFD
:1020600003D12B4601220096ECE7029B4B4523D976
:10207000A3EB0903DBB2009300225946404605EB6F
:102080000903FFF78BFCFF2805D12B4601220096A0
:1020900059460E2072E5FE2803D12B4607220096F2
:1020A000F6E70AF1010A1FFA8AF381449C421FFAFB
:1020B00089F907F10207CED8B9F1010F03D12B46F8
:1020C0000A220096BEE7A6F8009063E5042C05D826
:1020D0002B4604220021009616204FE58B78497884
:1020E00041EA03210B2905D0132903D02B460322F3
:1020F0000096F1E73B7997F8039049EA0329B9F193
:10210000010F03D92B4607220096E5E7631F1FFA4C
:1021100083FA19FA83F3022B03DD2B460D22009676
:10212000DAE798F8013413BB09A8FEF713FD012381
:10213000A8F8021488F8013400224FF0010B09F2CC
:10214000044007F1040C404493B29A4517D91CF897
:10215000013F00F8013B98F806E409EB02030BFA93
:1021600003F343EA0E0388F806340132ECE7B8F8CB
:1021700002348B42E0D02B4609220096ACE7029B4A
:102180009C4203D92B4604220096A5E722463946F5
:10219000284603F059F817232B703480FAE4022CF8
:1021A00005D02B460422002100961820E6E44B7847
:1021B00053B909A8FEF7CEFC192301202B703080FB
:1021C0000446E8E40B001300012BEAD198F801342F
:1021D000002BF1D0B8F802440B2C09D0132C07D0F7
:1021E00009A8FEF7B7FC2B46032200962146DCE740
:1021F00098F8067407F00307032F06D009A8FEF726
:10220000A9FC2B460D220096F0E798F8052498F8D3
:102210000434214643EA02220AA8FEF7AAFC002859
:10222000C7D109A8FEF796FC2B463A460096DDE793
:10223000012C04BF002388F8FE330020BFE7022CE6
:1022400005D82B46042200210096122096E48978B6
:1022500097F8019049EA0129B9F10B0F02D0B9F1C1
:10226000130F10D1052C04D02B460D2200964946A1
:10227000EBE73A79FB78494643EA02220AA8FEF7DF
:1022800078FC044618B92B4603220096EFE798F82D
:10229000013433B1B8F802344B4502D109A8FEF736
:1022A00059FC13232B700123338074E4042CC4D90C
:1022B00089787D7845EA01250B2D01D0132DBCD1FD
:1022C000052CBAD13A79FB78294643EA02220AA8BA
:1022D000FEF74FFC0028B0D098F80134002BACD0AA
:1022E000B8F80234AB42A8D109A8FEF733FCA4E742
:1022F0000C4650E41C464EE434464CE4F0B587B03E
:102300000C9C019311B9002007B0F0BD002BFAD04E
:10231000002CF8D0032AF6D9CD78887840EA052039
:102320000528F0D14E780D78101F82B245EA0625B7
:10233000AA4228BF2A46032AE5D9CF7988790DF128
:10234000040C40EA07200027CDF80CC00DF10A0C60
:10235000CDF810C00DF10B0C4D79CDF814C000F183
:10236000040C94450E798DF80A508DF80B700ED937
:10237000012204211A711A7217225D719971DF719D
:102380005F729A72DF7208238DF80B300CE0152E05
:1023900040D82D4AF240D207B5D4122E22D10828B7
:1023A00014D003A8FEF7DFFC9DF80B101729AAD85C
:1023B0000198FEF7BDFA0522019B01209A700022C8
:1023C000DA709DF80B30043323709DE713221A71E5
:1023D000022201219A7100225D71DA7119725A721A
:1023E0000623D1E7142EDCD10A28DAD117211522D1
:1023F00099721A711973002202215D719871DA7154
:102400001A725A72DA725A739A73DA7319745A74A6
:102410000E23B9E7162EC4D10428C2D10122487A6E
:10242000097A1A7106225D719A71022500221D72C5
:10243000DA715A729A72DA7241EA002103F10C00E1
:10244000FEF776FA0A239FE702002800F0B585B070
:102450001C460A9D51B14BB145B1032A06D9CE782D
:102460008B7843EA0623042B1EB201D0002226E01B
:1024700091F801C00F78131F47EA0C279AB2BA42AD
:1024800028BF3A46002AF1D000270DF10E03009331
:102490000431231DADF80E70FFF710FB0246002833
:1024A000E4D0BDF80E104B1E162BDFD82046FEF7E9
:1024B0003FFA9DF80E30A6700433E7702B7010467B
:1024C00005B0F0BD70B5002510260446C0F80854CC
:1024D000C0F80F543246294680F80754C0F80B5410
:1024E000C0F8125400F2164002F0BBFE32462946F4
:1024F00004F2264002F0B5FE3246294604F2364088
:1025000002F0AFFE3246294604F2464002F0A9FE30
:102510003246294684F85654C4F8045504F5A1609F
:1025200002F09FFEC4F81855C4F81C55A4F82055B5
:1025300084F8226584F8FA5470BD70B50023002534
:1025400000221026044600F58C6180F85754C0F82C
:10255000585480F85C54C1E9002300F58D61C1E94D
:10256000002300F271403246294600F8015C02F077
:1025700078FE3246294604F2814002F072FE294676
:10258000C4F89154C4F8955484F8995484F89A5432
:1025900004F29B401F22BDE8704002F062BE10B5FD
:1025A0000446FFF78FFF2046BDE81040FFF7C5BF88
:1025B00037B5044600680D46FFF7F1FF05230222F8
:1025C000606801A98DF804308DF80550FEF7FDFA1A
:1025D00003B030BDF0B590F8F91406468DB019B1CE
:1025E00096F8F8040DB0F0BD2C2201A802F039FED7
:1025F000D6F8BC3406F2CC47EBB9264C264B226801
:102600009A423AD16268254B9A4236D1FEF77CFB5A
:10261000A368984231D104F10C00FEF761FA60B36F
:1026200001AD0C340FCC0FC50FCC0FC594E80700DB
:1026300085E807000AE0D6F8C81401A898470028E2
:10264000DBD001A8FEF74CFA0028D6D0012301A860
:1026500086F8F934FEF744FA90B13A4601AB0BAD77
:102660001C4603CCAC4210605160234602F10802C4
:10267000F6D120680123106008E0012386F8F934C0
:102680002C220021384602F0ECFD002386F8F834B5
:10269000A6E700BF80060020424F4E4401002C00F8
:1026A000F8B5064608460C46FEF71AFA054660B32A
:1026B000174F184A184B07F10C0CC7E900320A46AD
:1026C00001F1280E634610685168083203C3724551
:1026D0009C46F7D110681860FEF716FBD6F8C03498
:1026E000B86023B12046D6F8C8149847054606F2CC
:1026F000CC4304F12C0254F8041B944243F8041B0D
:10270000F9D140F20113A6F8F8342846F8BD00BF0D
:102710008006002001002C00424F4E442DE9F04F6E
:10272000A7B004460D46099309B9002080E0002BAC
:10273000FBD0309B002BF8D0032AF6D9C978AB78B0
:1027400043EA0123062BF0D12B786E78111F43EA60
:1027500006228BB29A4228BF1A46002AE5D02B796E
:1027600009A90B910BAE30A9052BCDE90C100E96E3
:1027700002D1FFF714FFD8E7013B0A2B00F2C0811A
:10278000DFE813F00B00B7015900A900BE013101C9
:102790005701BE01BE01BE01BC01072A01D00A21BA
:1027A00002E0AB7923B102210DA8FFF701FF3FE062
:1027B0002F7AFB1F092B01D90621F5E7FFF7EFFE62
:1027C0002B4653F8042F04F20F41C4F808249A88CA
:1027D000A4F80C249B7984F80E34022384F80F3477
:1027E0000323A4F81034EB7984F8137403F0030383
:1027F000002B14BF0122002284F8122484F804253F
:102800004FF0000218BF6B7A84F8152418BF03F04C
:10281000010384F8143403F0010384F8053501231F
:10282000072284F8227584F807343046FEF7CDF984
:1028300027B0BDE8F08F112AB1D190F80734012BF1
:1028400001D00821B0E76B1D00F21642153553F890
:10285000041BAB4242F8041BF9D102F04BFC0025EB
:10286000D4F8B832B4F8D42204F2364783EA0242EC
:10287000424010213846FEF71DF929460D221CA8BA
:102880001B9502F0EEFC0DF16D03049304F10D03B2
:102890000393637ACDE91755CDE919555D1E6B4257
:1028A0006B41029304F52C73019394F8B6323946C8
:1028B000009304F5816204F20F4317A8FEF770FC41
:1028C0000028BED003238DF86C300223112284F837
:1028D00007341BA9A9E7112A7FF461AF90F80734E8
:1028E000022BAED100F2264632466B1D153553F849
:1028F000041BAB4242F8041BF9D1002394F8B62222
:10290000677A0692781E06994742474104F52C7A69
:1029100004F10D0B0DF14C0804F58162CDE90F3384
:10292000CDE91133CDE91333CDE91533CDE91733B3
:10293000CDE91933009104F20F433146CDE903B8D4
:10294000CDE901A70FA8CDE90723FEF729FCDDE9B2
:10295000072300283FF475AF069904F236450DF1C0
:102960005C090091CDE903B92946CDE901A70FA87B
:10297000FEF716FC00283FF464AF1022404604F234
:10298000164102F053FC28B910224946404602F095
:102990004DFC08B9042107E7306871681BAB03C31D
:1029A000286869681DAB04F2464603C332461BA97A
:1029B0000FA8FEF7EFF900283FF443AF012384F896
:1029C000563404238DF86C300DF16D0355F8042B4B
:1029D000B54243F8042BF9D10323112284F80734BC
:1029E0001BA90BA822E7112A7FF4D9AE90F8043571
:1029F000002B3FF49AAE90F80535002B3FF495AECE
:102A000090F85734002B3FF490AE90F85834002BD8
:102A10003FF48BAE6B1D00F5A162153553F8041B16
:102A2000AB4242F8041BF9D140F20113A4F8063579
:102A30007BE60B2A7FF4B3AE90F80435002B3FF40D
:102A400074AE90F80635002B3FF46FAE90F8073562
:102A5000002B3FF46AAEAB796A7900F5A36642EACF
:102A60000322A0F8202555F8073FC0F818356B68F9
:102A7000C0F81C35002380F80735ADF895308DF887
:102A80009730B4F8B432D0F8B002ADF8703094F8A2
:102A9000B6321B908DF87230234653F80D1F9B8879
:102AA000CDF87310ADF87730637A591E4B424B4125
:102AB0008DF879300DF17A0104F5A16353F8040B18
:102AC000B34241F8040BF9D11968ADF89220CDF862
:102AD0008A10596894F82235CDF88E10DA1F092A29
:102AE00088BF102320461BA98DF89430FFF7D8FD2E
:102AF0001BE6072A7FF453AE072155E6022AF9E7C1
:102B0000052151E670B4A1B1032A12D9CE788C7890
:102B100044EA0624042C02D170BCFFF797BC052CB4
:102B200002D170BCFFF7EABB062C02D170BCFFF7E4
:102B3000F5BD002070BC70472DE9F041A2B00446FD
:102B400029980E46019308B1002303700EB90025A1
:102B50009FE1019B002BFAD0289B002BF7D0002A85
:102B6000F5D0317828AD8DF80B10002119700DF1DA
:102B70000B0301A9CDE90713CDE90B13CDE90F1321
:102B8000CDE9131304939DF80B30CDE90554CDE93D
:102B90000954CDE90D54CDE91154CDE915540391F3
:102BA000222B00F2E98201A151F823F0512C000000
:102BB000DB2C0000392C00003F2D00004F2B0000C3
:102BC0009B2E0000093100004F2B000071300000E7
:102BD0004F2B00007F2F00003931000091300000A2
:102BE0004731000071300000CF2F00004F2B000054
:102BF0005F310000FB3000004F2B0000B7300000B9
:102C00004F2B0000E33000004F2B00004F2B000043
:102C10004F2B0000BD2F00004F2B00004F2B00005A
:102C2000BD2F00004F2B0000CB2F00004F2B0000CA
:102C30004F2B00004F2B0000022A04D003A8FDF701
:102C4000DAFE054625E1002881D0012303707EE7E6
:102C50000C2AF3D173793279B07942EA0322F379FD
:102C6000317A40EA0320737AB0F5FA7F41EA032112
:102C7000F37AB67A46EA03262DD240F67A45931FB8
:102C80009BB2AB428CBF0023012340F67647A1F1F3
:102C90000A05ADB2BD4288BF00230A2700FB02250A
:102CA0004F4305EB8505B7EB550FB4F8D45298BFE9
:102CB0000023751B2DB2002DC0DD002BBED00123DB
:102CC000A4F8EC23A4F8EE03A4F8F013A4F8EA6344
:102CD00084F8E8333BE70023D7E7082AAED17378BE
:102CE00017A88DF85C30B378B5798DF85D30F3783E
:102CF000F7798DF85E3033798DF85F30737903F0B2
:102D00001F038DF86030FDF712FF0128014695D9A9
:102D1000B4F8D43245EA0722D31A1BB2002B8DDD5A
:102D20009DF86030179884F8FA330123C4F8F6034D
:102D300084F8FB13A4F8F42384F8F23307E7172A86
:102D40007FF47CAF94F857345BB994F85A3443B9A4
:102D500094F85B342BB994F8583413B994F8593477
:102D60001BB113A8FDF793FE6BE794F856541DB9F9
:102D70000BA8FDF766FE64E794F8FA347BB1B17AEC
:102D8000737AB4F8F22443EA01239A42F0D108227C
:102D900004F2EA41701C02F049FA0028E8D1B0467A
:102DA00004F2714700211022384602F05AFA58F80E
:102DB0000B3FC4F87934D8F80430C4F87D34D6F821
:102DC0001330C4F89534B27A737A43EA0223324658
:102DD000A4F8203552F8013FC4F818355368C4F8F8
:102DE0001C3502F087F9B4F8D422D4F8B83283EA5B
:102DF000024343404046FDF799FD434006F113006E
:102E0000FDF794FD83EA0006324608213846FDF7B7
:102E100051FEC84A04217240012604F29140FDF798
:102E200049FE1022002184F8706404F2814002F00F
:102E300018FA4FF480330021C4F8583400220023DC
:102E400004F58C6084F8576484F85C14C0E90023AE
:102E500004F58D60C0E900231F2284F8991484F8DA
:102E60009A1404F29B4002F0FCF90422019B1A70B0
:102E7000D4F87134019AC2F80130D4F87534C2F82C
:102E80000530D4F89124019BC3F809200D22289B1A
:102E90001A70284622B0BDE8F081012A7FF4CEAE38
:102EA00094F85734002B3FF463AF94F85834002B58
:102EB0007FF457AF94F85934002B7FF452AF94F855
:102EC0005A541DB90FA8FDF7CFFDBAE6A4F85A343D
:102ED00094F8043584F8582484F85C24002B48D0F6
:102EE00094F85634002B44D094F80635002B40D18A
:102EF000ADF885308DF88730B4F8B432D4F8B0022C
:102F0000ADF8603094F8B63217908DF862302346F1
:102F100053F80D2F04F256419B88CDF86320ADF88D
:102F20006730637A5A1E534253418DF869300DF170
:102F30006A0204F2464353F8040B8B4242F8040B36
:102F4000F9D1D4F818352046CDF87A30D4F81C35AC
:102F500017A9CDF87E30B4F82035ADF8823094F85A
:102F60002235DA1F092A88BF10238DF88430FFF735
:102F700097FB0622019B1A70289B012288E7012AF1
:102F80007FF45CAE94F85754002D3FF4F1AE94F802
:102F90005A34002B7FF4E5AE94F85B34002B7FF4B9
:102FA000E0AE94F858341BB994F85934002B89D00A
:102FB0002046FFF7C2FA0B22019BDCE7022A7FF4CE
:102FC0003DAE07A8FDF72AFD3BE6242AF7E7182ABD
:102FD0007FF434AE3279F378B5787078717943EA5A
:102FE0000223B279F47940EA052041EA0221327ADB
:102FF000052844EA02242AD9B3F5486F27D883422A
:1030000034BF0025012540F67640A4F10A0292B2B1
:1030100082421ED8B1F5FA7F28BF00250A2001FBA5
:103020000333444303EB8303B4EB530F019A12D9E8
:103030008DB106F1180356F8041B9E4242F8041B9A
:10304000F9D11022019B1A70289B182220E7002535
:10305000D9E70025E2E7112313700F22019B5A7074
:103060002022019B9A700322289B01251A7010E7E9
:10307000092A7FF4E3AD1F21019B1A70019B59704F
:103080000021019BC3F80210C3F80510289BECE750
:10309000062A7FF4D3AD0C21019B012019700D216C
:1030A000019B59705921019B99700021D970019B96
:1030B00018715971EAE7092A7FF4C0AD15211B2563
:1030C0000024019B012019704821019B5D709C70B8
:1030D000019BD9701871019B5D719C71D971187237
:1030E000D4E7032A7FF4AAAD17210120019B1970B0
:1030F000019B5870019B9870C8E7012A7FF49EAD30
:103100001321019B1970C1E7012A7FF420AD94F8C7
:103110005B34002B3FF41BAD94F85734002B3FF485
:1031200016AD002084F8592484F85B0484F85C040C
:1031300087E500BF4F8BA36B012A7FF408AD2046C3
:10314000FFF7FBF903E5022A7FF401AD94F85B3445
:10315000002BF4D194F85A34002BF0D1F7E4032A71
:103160007FF4F5AC72780A2A3FF6F1AC4FF4856330
:10317000D340DB07E3D4EAE40722019B1A709DF8F1
:103180000B20019B5A70289B02226EE7002370B52A
:1031900080F8FA3490F8F93404460BB9FFF71AFABC
:1031A00094F8F854002D56D0062204F52C7104F240
:1031B000CC4002F03BF800284FD194F8D23494F878
:1031C000B62203F001039A4247D1062204F10D0111
:1031D00004F2D34002F02AF800283ED1627A94F833
:1031E000D934511E4A424A4103F001039A4236D172
:1031F00004F2DA431A4604F2464004F2EA4152F875
:10320000046B8A4240F8046BF9D1012203F11000EB
:1032100084F8562404F5A16253F8046B834242F803
:10322000046BF9D10122A4F806250B68C4F81835FF
:103230004B68A4F80425C4F81C35B4F8F23484F8BB
:10324000FA24A4F8203594F8F434D91F092988BF4A
:10325000102384F82235284670BD0025FBE705467B
:10326000F9E700002DE9F04F077A85B004469DF894
:1032700038B00F9E27B90027384605B0BDE8F08F5B
:1032800000680028F7D00029F5D0212AF3D90A6870
:1032900001F10C00C4F8B0228A8884F8B632A4F890
:1032A000B422FDF743FBC4F8B8028B7C4A7C1B04B4
:1032B00043EA02230A7C82461343C4F8BC32CB7D26
:1032C0008D7DCA7C45EA032591F8148091F815900C
:1032D000A4F8C052487E0B7E039243EA0023A4F870
:1032E000C232C87E8B7E063D43EA00230846A4F81E
:1032F000C43250F81CCF0293C4F8C6C20079ADB2F4
:1033000000F01F0084F8CA0291F82100400984F8F7
:10331000D002E07A91F82110002808BF4FF0000B8E
:1033200001F01F018AEA1A4084F8CC12019184F856
:10333000CDB2A4F8CE0204F2C620FDF7F8FB40F6A9
:103340007A4C654584F8CB0295D8029B092B92D91B
:10335000012890D9019905390B298CD83C4B9A4505
:1033600089D00023039A84F8D132A4F8D232C4F869
:10337000D432002A68D040F2E2435A43082384F84A
:10338000E03217230025A4F8E2324FF0011329465A
:10339000C4F8E432C4F8DC2284F8E852FF2204F2D4
:1033A000E92001F05EFF204684F8E853A4F8EA53D0
:1033B000C4F8EC53A4F8F05384F8F253A4F8F4538F
:1033C000C4F8F65384F8FA5384F8FB53C4F8FC535A
:1033D000C4F80054A4F8045484F80654FFF7DFF846
:1033E0002046FFF7D3FEFF22294604F5D87001F0EE
:1033F00038FFD4F8B82223681202C3F82C2ED3F871
:10340000341E94F8BB2221F0FF010A43C3F8342E86
:10341000D4F8BC2222F07F42C3F84C2E0122C3F81C
:103420003C5EC3F8402E16B901F064FE064640F239
:10343000E240012348EA092808FB00000644C4F8DA
:10344000D86284F8AF3217E740F2E24296E700BF55
:10345000D6BE898E38B540F2E245B0F8C032044697
:103460005D430BD101F046FEB4F8D43200F2E240E5
:103470000133C4F8D802A4F8D43238BDD0F8D83219
:103480002B44C0F8D832B0F8D4320133A0F8D4328B
:1034900001F030FE0923013B13F0FF03EDD0D4F817
:1034A000D822811A0029E8DB2A44C4F8D822B4F8CB
:1034B000D4220132A4F8D422EDE790F8CD320246AE
:1034C00070B5CBB3B0F8D43211B90BB1591E8BB271
:1034D0000325B2F8CE4284EA0301080AFDF75FFA39
:1034E0000646C8B2FDF75BFA40EA062303EB031376
:1034F000013DE11815F0FF0589B2EED125206140AC
:10350000B1FBF0F300FB1313C3F3CC04144494F8A1
:10351000C642D8B203F0070324FA03F3DC0735D41C
:1035200092F8CB0290B34143C1F3074102F2C620A7
:10353000BDE87040FDF718BA90F8CC5249B1252388
:1035400090F8D1022844B0FBF3F403FB140082F896
:10355000D102252092F8D1325919B1FBF0F300FBCA
:103560001313D8B202EBE30182F8D10291F8C6122C
:1035700003F0070321FA03F3DB0707D492F8CB42E9
:10358000B0FBF4F104FB1101C9B2CFE770BD0068D4
:1035900090B124290FD80A2994BF8B1CCB1C5B0047
:1035A00041F40901DBB241F04001C0F80837C0F82E
:1035B00040150120704700207047006848B149B1AC
:1035C000D0F8203223B9D0F8203501391B07F6D1C5
:1035D000012070470846704738B503680446002547
:1035E000002B3BD0012280F8AF521D49C3F8005494
:1035F0001A61FFF7E2FF03232068C0F8A420C0F897
:1036000000354FF48473C0F80427C0F8203E154BF2
:10361000C0F8283E144BC0F82C3ED0F8343E23F0BE
:10362000FF0343F08E03C0F8343E40F20313C0F8AA
:103630003C5EC0F8402EC0F8443E40F25B63C0F8E8
:10364000483E0A4BC0F84C3E9623C0F81437084B4E
:10365000C0F84035FDF7B6F9104638BD1846FCE70E
:10366000C0D40100FF00030200D6BE8955555500A5
:1036700065008900006848B149B1D0F81C3223B90F
:10368000D0F818320139002BF6D0012070470846D7
:103690007047006868B125290CD026290CD11A235F
:1036A00041F4090141F04001C0F80837C0F8401565
:1036B000012070470223F3E750232721F0E70000A1
:1036C0002DE9F04F044689469846154687B05AB111
:1036D0000023117053709370D370137153719371F1
:1036E000C2F80730A2F80B30237A23B900263046FF
:1036F00007B0BDE8F08F2368002BF7D094F8AF72C5
:10370000002FF3D149462046FFF7C3FF0028EDD034
:10371000264656F8AC0BFDF755F940F20112394632
:10372000304601F09EFD324604F15C0304F1800155
:1037300053F8040B8B4242F8040BF9D11988204648
:1037400011809B7893702368894AC3F8D06EC3F8C0
:103750000024012210991A60FFF78CFF109B064687
:103760004FEA530A0AF1010A58B923685146204624
:103770001A61FFF722FF2068C0F80064FDF722F904
:10378000B5E751462046FFF718FF68B92368514650
:103790001A612046FFF711FF024628B92068C0F8D9
:1037A0000024FDF70FF9A1E7002223684146C3F882
:1037B0002022C3F81822C3F81C22C3F82C22C3F815
:1037C00030226C4AC3F80024D3F82025100708BF24
:1037D0000122204608BF5A60FFF74CFF024650B94D
:1037E00001212368204619615146FFF7E6FE206853
:1037F000C0F80024C2E701F07DFC236894F8AC8097
:10380000D3F80C2E4FEA6813039394F8AD3004906C
:103810005146204602F001020593FFF7CEFEC8F3A1
:10382000801B064638B9012123682046196151469C
:10383000FFF7C3FE064600232068C0F80034002EC0
:103840009CD0002A68D0059A02F03F0ABAF10B0F0B
:1038500061D9062204F10D0104F1B40001F0E6FC87
:1038600000230246002856D1637A591E4B424B4131
:10387000B3EBD81F50D108F00F08B8F1030F04F1D3
:10388000AE0129D1002D4BD00B688046C5F807301A
:103890008B883146A5F80B30236885F800902BB152
:1038A000D3F8183703F07F035B425BB2AB7185F846
:1038B00005B0697085F80380B8F1000F2ED0E37A67
:1038C00013B1039B03F001032B71A37A0BB1062BF9
:1038D00043D159BB0F4640E0B8F1050F1CD1A37A84
:1038E000D3B9BAF1210F16D92DB10B68C5F807303D
:1038F0008B88A5F80B30049B52460193039B20460E
:1039000003F0010300935B46FFF7ACFCB0460246B0
:1039100055B10021C0E71A469046F9E74346D3E780
:103920002A46A8463146D0E72946CEE7AAB92068FC
:10393000FDF748F8214651F8843B2046C3F8D01ED5
:103940004FF42021C3F80014012119601099FFF7EA
:1039500034FE07462368C3F8002435B1AF70B8F1D0
:10396000000F02D00AB9EA702A71206806E700BF8A
:1039700018000E0010000C002DE9F04F89B007462A
:103980000C46924600210D2204A89B4601F069FCDA
:1039900042F22563ADF80C3027238DF80E30032357
:1039A00097F82355B5FBF3F303EB4303EB1ADDB2B2
:1039B0007CB108AB2B4413F8143C237000236370D4
:1039C000A370E37023716371A371C4F80730A4F886
:1039D0000B304FF000084FF001090D22002104A820
:1039E00001F03FFC032205EB0803B3FBF2F101EB0E
:1039F00041015B1A08AAD118129B3846009311F8AE
:103A0000141C5B4604AAFFF75BFEB9F1000F18BF58
:103A100081469DF813C0FCB1BCF1000F0BD19DF89D
:103A2000113043B9B8F1020F26D108F10108B8F1FD
:103A3000030FD2D113E0264604AB0DF1180E1A463F
:103A400003CA724530607160134606F10806F6D16C
:103A50001068306013793371BCF1000FE2D003239A
:103A60000135B5FBF3F3484603EB4303EB1A87F844
:103A7000233509B0BDE8F08FBAF1000FD5D050461C
:103A800001F06EFBD1E7000038B503680446002B57
:103A900047D0244A0025C3F82C2ED3F8342E2946CB
:103AA00022F0FF0242F08E02C3F8342E1E4A00F2CA
:103AB000E920C3F84C2E0122C3F83C5EC3F8402E27
:103AC000172320F8073C4FF0011300F8015C40F881
:103AD000053CFF2201F0C5FB204684F8E853A4F81A
:103AE000EA53C4F8EC53A4F8F05384F8F253A4F862
:103AF000F453C4F8F65384F8FA5384F8FB53C4F82B
:103B0000FC53C4F80054A4F8045484F80654FEF797
:103B100046FD204684F824552521BDE83840FFF7AE
:103B2000B8BD38BD00D6BE895555550070B5067A6A
:103B30000446002E47D003680025002B45D0012203
:103B4000C3F800541A61FFF738FDFF22294684F8B4
:103B5000AF5204F2E92001F084FB1723A4F8E2320B
:103B60004FF001132046C4F8E43284F8E85284F898
:103B7000CD52A4F8CE52A4F8D652C4F8DC5284F840
:103B8000E05284F8E853A4F8EA53C4F8EC53A4F8DC
:103B9000F05384F8F253A4F8F453C4F8F65384F8BD
:103BA000FA5384F8FB53C4F8FC53C4F80054A4F847
:103BB000045484F80654FEF7F2FC2046FFF764FF35
:103BC0002068FCF7FFFE304670BD1E46FBE7000094
:103BD0002DE9F04F044616460D46E3B061B1B0F84A
:103BE000D42200234A814FF48032C1E90033C1E975
:103BF00004230B72CB608B61237A2BB900230993CA
:103C0000099863B0BDE8F08F2368002BF6D094F8D4
:103C1000AF32002BF2D0B4F8C03240F2E24703B129
:103C20005F4301F067FA94F8E032002B00F0A980BE
:103C3000D4F8DC2202F5C872D4F8D832A0EB03091C
:103C4000A9EB02096FEA0909A3F59668A0EB08033E
:103C5000002B4FEAD979C0F297802046FFF7FAFB94
:103C600094F8E833002B40F09C8094F8F233BBB119
:103C7000B4F8D432B4F8F4239B1A1B0410D494F88B
:103C8000FB33012B09D9D4F8F62384F8CB32C4F8DE
:103C9000C62294F8FA2384F8CA22002384F8F23367
:103CA00049462046FFF709FC024601462046FFF739
:103CB0006EFC09900028A1D02DB101232B70B4F81F
:103CC000D4322A736B81A04658F8AC0BFCF77AFE0D
:103CD00040F201120021404601F0C3FA2068AA4BCD
:103CE000C0F8D08EC0F800340123436094F8E0326D
:103CF0005BB1D4F8DC3203F5FA639F4238BF1F464C
:103D00004CF250339F4228BF1F4632463946FCF7DB
:103D100097FF760807460136002862D10123206804
:103D200031460361FCF7B9FF2068C0F80074FCF766
:103D300049FE94F8E03213B1013B84F8E032B4F864
:103D4000D622B4F8C012013292B240F2E243A4F893
:103D5000D622002943D0594342F21073B4F8C4026A
:103D60004343994294BFB3FBF1F301239A42FFF41A
:103D700047AF0DB101236B7131462046FFF7D6FEE8
:103D80003EE74FF4B47257E7A8EB0000B0F5B47FFC
:103D90003FF634AF01F0AEF9A0EB08000028F9DBE4
:103DA0005BE7B4F8EA23B4F8D4329B1A1A043FF55F
:103DB0005CAF40F67A42B4F8EC33063B9BB29342D8
:103DC00009D8B4F8F033092B82BFD4F8EC23A4F857
:103DD000C432C4F8C022002384F8E83345E719460A
:103DE000BAE701F087F931460F902068FCF755FFDC
:103DF000099030B90123206831460361FCF74DFF7B
:103E0000099000232068C0F80034099B13B9FCF71F
:103E1000D9FDF5E6D0F80C3E03F001025DB10121B9
:103E2000D0F81837697003F07F035B426B7304F1BD
:103E3000AE03AA706B6194F8E03232BB13B1013B60
:103E400084F8E032B4F8D622B4F8C012013292B24B
:103E500040F2E243A4F8D622A9B1594342F21073CA
:103E6000B4F8C4024343994294BFB3FBF1F3012376
:103E70009A4206D30DB101236B7131462046FFF7FC
:103E800055FE2068C3E71946E8E70022A4F8D622C9
:103E90007BB1B4F8C00240F2E24700B1474301F001
:103EA00029F994F8E0320744013BC4F8D87284F849
:103EB000E03294F8AC3094F8ADA003F0030207921E
:103EC000079894F8D322032894F8D212C3F38007FA
:103ED000C3F3C00C3CD1BAF1000F0FD094F8AEE0A0
:103EE000BEF10A0F34D84FF4856020FA0EF010F0BE
:103EF000010F099808BF0020069001E0CDF818A036
:103F0000614527D1BA4204D194F8E50208B1069878
:103F100060B181F0010184F8D2120999BA4218BF48
:103F200082F00102069118BF84F8D322002294F88F
:103F300057748DF85620002F59D094F8582494F8CF
:103F40005B144AB994F8590430B931B900274EE0EE
:103F50000020D1E70021E1E761B10799032909D1E8
:103F6000BAF1010F06D194F8AE30062B40F0B084C0
:103F7000002749E0BAF1030F08D8002A00F0B98001
:103F800001238DF8563032E010000C0004F58C62ED
:103F9000D2E90089069A32B958EA090203D018F129
:103FA000FF3849F1FF394FF0000B1722594622A87C
:103FB000089321AFC7F800B001F053F91AABCDE96F
:103FC0000373089B8DF868B004F1AE0B0093424672
:103FD0004B46CDE901BA04F2914104F28140FDF76C
:103FE0002AF9002869D194F85874002FC8D1079B8A
:103FF000032B09D1BAF1010F06D994F8AE30022B88
:1040000002D101238DF856300DF15602107885B19A
:10401000069B68712B71079B85F811A0032BAB736E
:1040200069D1BAF1000F04D00123AB7194F8AE301E
:10403000EB7300218DF85710BAF1000F76D094F889
:10404000AEC0BCF10A0F74D84FF4856323FA0CF3A9
:1040500013F0010F099B08BF0B460A93069B002B28
:1040600000F00281002840F0DE83079B032B40F024
:10407000DB830A9B002B00F0D9830DF157080192D6
:1040800020465246CDF8008004F5D87304F1AE0105
:10409000FEF752FD28B198F800300A90181E18BF9C
:1040A00001209DF85630002B40F0E080002842D0DF
:1040B00003239DF857B00B9357E09DF868A0BAF121
:1040C000000F04D052463946584601F0BDF8069B11
:1040D000002B3FF43BAFD4F86024D4F864340132B1
:1040E00043F1000303F07F03C4F86024C4F8643490
:1040F0002CE717467BE7079B022B9AD1BAF1040FF6
:1041000097D994F8B11094F8B03043EA0123042B06
:104110008FD194F8AE3094F8AF1053EA01231FBF4B
:104120000123EB7194F8B2302B7482E7CDF828A00C
:1041300094E70A9192E794F8E832002B00F091801E
:1041400094F8E63294F8E7B20B93BBF1000F06D077
:104150005A4604F2E92104F5D87001F075F80123FC
:10416000A4F8E632002384F8E8320B9B84F8E5B229
:1041700084F8E43294F8D23294F8D3229B00D2002F
:1041800002F0080203F0040313430B9A94F85974E5
:1041900002F003021343089384F85C30002F00F010
:1041A000878094F85774002F00F08280069B002BC4
:1041B0007DD194F89974002F7AD094F89A2484F8D9
:1041C0005D202AB104F29B4104F15E0001F03CF84D
:1041D0002068FCF7F7FB224652F85C3B0F9FC3F8C0
:1041E000D02E11924FF420226A37C3F8002400F039
:1041F00081FFC01B0028FADB01232068324640F211
:104200009E710360FCF71CFD002840F0FC80012338
:10421000206831460361FCF740FD0023089300222B
:104220002368C3F800249DF856300E93A3B994F880
:104230007034002B00F0028304F2814204F27141D9
:1042400004F24640FCF7A6FD002840F0E58001237B
:1042500084F870048DF85630089B002B00F0E28043
:104260004AE18346012326E7069B0A9394F8E43249
:1042700094F8E5B20B939DF85630002B3FF47AAFDB
:10428000002F3FF477AF43F60253A4F8B031002378
:1042900040F20322A4F8583484F8993484F89A340C
:1042A00003234FF0020BA4F8E4220B9362E7069F6E
:1042B00084F85DB0BBF1000F00F00F835A4604F59F
:1042C000D87104F15E0000F0BFFF002F00F00883FA
:1042D000BBF11B0F00F28C804FF000084FF001097A
:1042E000474604F29B420C92D4F86C24D4F868142C
:1042F00062F07F028DF85C20D4F8912404F28143AF
:10430000CDF85D20D4F895240E93169104F5D8735A
:10431000CDF86120C34539D9494621AA16A8CDE96F
:104320001A77CDE91C77CDE92177CDE92377109372
:10433000FCF767FC0E981AAA21A9FCF72BFD0028B0
:1043400056D0ABEB0802D2B2102A28BF10224FF091
:10435000000C08F5D870109B20445FFA8CF18A425B
:104360000CD90DF1680E10F8011B1EF80CE00CF1D1
:10437000010C81EA0E0180F8EA12EEE7904409F19F
:1043800001095FFA88F81FFA89F9C3E70DF184087B
:10439000CDE900B8089A0E9816A92197FCF766FE99
:1043A00030B3D8F800300C9A0BF10407FFB242F892
:1043B0000B300C993A4684F85D7004F15E0000F011
:1043C00043FF012384F89934069B84F89A74002BE8
:1043D0003FF4FEAED4F86824D4F86C34013243F1D3
:1043E000000303F07F03C4F86824C4F86C34EFE6DC
:1043F000002384F85D3084F8993484F89A340123DA
:104400008DF85630E4E631462068FCF746FC08900B
:1044100000283FF4FCAE02E70E9B84F87034089B42
:10442000002B64D10027069B002B66D09DF85630E8
:10443000002B62D10A9B0DF15608002B40F0B08191
:10444000079B032B40F0AC81BAF1000F10D00A9B00
:1044500021AE8DF8843052462046CDE9006804F53F
:10446000D87304F1AE01FEF767FB08B132785ABB8E
:1044700094F85B24002A40F0C18194F85A34002B50
:1044800040F0BD8194F8FC23002A00F09F8194F84D
:10449000FD23002A00F09A8194F8FE23002A40F0C0
:1044A0009581BD4BBD4984F8FD23C4E96C134FF4DD
:1044B0007F43A4F8B831FF2384F8BA3101230B22DB
:1044C00084F8FE330223079398F80030ABB9A2B109
:1044D000079B84F8E72284F8E63204F5D87104F2E9
:1044E000E92000F0B1FE012384F8E83205E09DF8F0
:1044F0005630002B00F0A681099FDDB1089B85F89E
:1045000013B02B720B9BAB74BBF1000F00F07981E1
:1045100004F5D873AB61089B3BB10B9B012B0ABF21
:10452000BBFA8BF300235B090893089BEB709DF8A3
:1045300056306B7194F85C249DF85630002A00F0D8
:104540006281002F00F05F81002B40F05F8101222B
:1045500084F85C3484F8592493E4D3F80C3EDF07E4
:1045600040F1B1819DF8843094F8D212C3F3C00EAB
:1045700003F00302714510929DF8857094F8D322E0
:10458000C3F3800C0BD194F8E5E2BEF1000F01D02B
:1045900062450AD081F0010184F8D2120E90624582
:1045A0001CBF82F0010284F8D32294F85724002A19
:1045B00055D094F85A24002A51D0109A032A4ED18B
:1045C000032F4CD904F58C62D2E90012CDE90C120C
:1045D0000E9A5AB9DDE90C120A4307D00C9A12F16F
:1045E000FF320C920D9A42F1FF320D9200211722F8
:1045F0001BA813931A9100F034FE00210DF18603DD
:104600000193139B0DF168080DF158098DF85810AE
:104610000093CDE90389DDE90C23029704F291416F
:1046200004F28140FCF707FEC8B199F800702FB181
:104630003A4641460DF1860000F006FE0E9B002B27
:1046400000F04181D4F86024D4F86434013243F19D
:10465000000303F07F03C4F86024C4F864340E9BA5
:10466000002B00F030819DF85680B8F1000F40F02B
:104670002A81109B032B40F02681002F00F023811C
:104680009DF88630052B40F01E8104F5D8721AABD8
:104690000DF15809CDE900930C92134620463A4695
:1046A0000DF186018DF858808DF86880FEF744FA88
:1046B0000746002862D099F80090B9F1000F00F089
:1046C0000381109B1F22414684F8E43284F8E5926E
:1046D00084F8998484F89A8404F29B4000F0C1FD28
:1046E00094F8D23294F8D3229B00D20002F0080250
:1046F00003F00403134343F003034A4684F85C3099
:104700000C9984F85D9004F15E0000F09DFD206836
:10471000FCF758F92368119A129FC3F8D02E4FF472
:1047200020226A37C3F8002400F0E4FCC01B0028F4
:10473000FADB01232068324640F29E710360FCF7E9
:104740007FFA98B90123206831460361FCF7A5FA86
:10475000002700222368C3F800249DF86830002B4E
:1047600000F0B28001238DF85630ADE0314620686C
:10477000FCF793FA07460028E4D0EAE70E9FA3E08F
:1047800020683146C0F81080FCF787FA23680F9A3A
:10479000C3F8002498E000BF1D0A000107000400D0
:1047A000079B022B7FF464AEBAF1030F7FF660AE75
:1047B000002321AE8DF8843052462046009604F541
:1047C000D87304F1AE01FEF79DF94EE694F8FF238D
:1047D000AAB194F8002492B14FF00412C4F8B021A9
:1047E00041F21B22A4F8B42194F8502584F8B63184
:1047F00084F8B72184F80034082263E600220123FC
:1048000061E65B4686E6002B3FF43BAB0123A4F850
:10481000E6320023204684F8E83284F8AF32FFF70E
:1048200033F9FFF72EBB00200A903AE40A9838E4E7
:10483000069B002B3FF460AE069FFBE5089B002B18
:104840003FF4F0AD94F85A74002FF1D00B9B032B7A
:10485000EED1BBF10D0FEBD194F8B031042BE7D1C1
:104860000021FD2222A8219100F0FBFC2068FCF72A
:10487000A9F820680DF18408C0F8D08E4FF0010827
:104880001F4B3246C0F8003440F6C411C0F8048013
:10489000FCF7D6F90F9000283FF472AF00F02AFC25
:1048A000314612902068FCF7F8F928B920683146A3
:1048B000C0F81080FCF7F1F900222368C3F8002447
:1048C00000287FF44AAE0F9F2068FCF77BF8AAE52A
:1048D000002A7FF455ABFFF74BBB002F7FF4FCACF5
:1048E000069B002B3FF474AC00211F2284F899141E
:1048F00084F89A1404F29B4000F0B3FC68E400BF13
:1049000010000C0007283FDC40D0062840D00528C6
:1049100040D0042840D0032840D0022840D00128AD
:1049200040D0002840D0431C40D0811C40D0C21C45
:1049300040D0031D40D0411D40D0821D40D0C31D3A
:1049400040D010F1080F3FD010F1090F3ED010F108
:104950000A0F3DD010F10C0F3CDA10F10E0F3BDACC
:1049600010F1100F3ADA10F1120F39DA10F1140FBA
:1049700038DA10F11C0F37DA10F1280FB4BF4FF4FA
:1049800088704FF4987070473F2070473920704707
:10499000332070472D207047282070472320704710
:1049A0001F2070471B207047182070471520704744
:1049B00013207047112070470F2070470D2070475B
:1049C0000B2070470A207047092070470820704765
:1049D0000720704706207047052070470420704765
:1049E00003207047022070470120704710B504680B
:1049F00044B10846FFF786FFC0F30A00C4F8100769
:104A0000012010BD2046FCE7F7B50026304F0446D4
:104A100080F8AF6280F8236580F8246538780D4609
:104A2000FCF70AFD18B90025284603B0F0BD3B7815
:104A300001205A1E5342534126492373FCF77CFC44
:104A40000028F0D02046FEF7C7FD0028EBD029460D
:104A50002046FFF7CBFF05460028E4D01E4B01217E
:104A600020460093ADF80460FCF7F9FE28B1636BB3
:104A70005BB12046FCF738FE0CE001226946204677
:104A8000FCF7D3FE0028F2D1CDE7012220461349DE
:104A9000FCF76AFE0028C6D0A36D1BB12046FCF7C8
:104AA000A4FE03E020460D49FCF703FF0028BAD01E
:104AB00094F844352BB12046FDF78CFD0123237279
:104AC000B2E720460549FCF7DFFD0028F3D1AAE74D
:104AD000FC05002060E31600C0541500BE55000020
:104AE0000022034B1A702022024B5A619A607047D1
:104AF000FD05002000040550012803D0022808D03D
:104B0000FFF7EEBF20220B4B18700B4B5A615A6017
:104B100070472021084A074B1870D2F894309161F1
:104B200023F4403323F00F0343F00403C2F894301E
:104B3000704700BFFD05002000040550FFF7D0BFFF
:104B400010B504460368DB689847E06810BD7047FD
:104B5000704710B5044600F041FA204610BD1328F6
:104B60005AD8DFE800F00A0F13171B1F23292D3234
:104B700036393D3F43474B4F5551012004230870C0
:104B800013707047012005230870F9E70120062300
:104B90000870F5E7012007230870F1E701200A23D8
:104BA0000870EDE701200B230870E9E702230B7082
:104BB000082301201370704702230B700723F8E7C6
:104BC000022301200B701070704702230B70042326
:104BD000EFE702230B70ECE700230B700323E8E7F9
:104BE0000023F3E702230B700A23E2E702230B7092
:104BF0000923DEE702230B700623DAE702230B709A
:104C00000023D6E70023E5E7012009230870B7E772
:104C1000012008230870B3E700207047054B0844C3
:104C2000013B04D00268002AFAD0012070471846E0
:104C3000704700BFA186010037B5047C04B3446807
:104C4000F4B1837C0125194000238DF80710C4F8C6
:104C50006831C4F830310DF10703C4F83C374FF424
:104C6000B471C4F8405720462565FFF7D7FF4FF4CD
:104C7000987120466565FFF7D1FF284603B030BD27
:104C80002046FBE74368F7B505460E461446002B61
:104C900000F096800023007A0DF1050201A98DF83D
:104CA00004308DF805308DF806308DF80730FFF7A9
:104CB00056FF002800F08480687A0DF107020DF19C
:104CC0000601FFF74CFF00287AD09DF804209DF8DC
:104CD00005C0022A08D8434B53F8221021B1012302
:104CE00003FA0CF34B614B609DF806309DF807709A
:104CF000022B10D83B4951F8231061B10120B84074
:104D0000886101EB8701D1F8800020F00F0040F0AE
:104D10003000C1F88000002152015B016868D2B206
:104D20000CF01F0CDBB207F01F0742EA0C023B43FA
:104D3000C0F80015C0F80426C0F80C364FF0FF3359
:104D4000C4F34102032AC0F80836C0F8103618BF71
:104D5000012302F105011CBF8B4003F1FF3304F076
:104D600030020CBFFF23DBB2202A2BD0302A2BD1FC
:104D70004FF4807242F00E02AB7464001A4B04F0E0
:104D8000100414439E42C0F86C451FD8B6F5E13FAD
:104D90001FD2B6F5614F1FD2B6F5164F1FD2134979
:104DA000134BB6F5964F34BF0E461E460823C0F887
:104DB0002465C0F800354FF0FF33EB6001232B74FE
:104DC00003B0F0BD0022D5E70022D5E74FF08056B2
:104DD000ECE74FF0EB76E9E74FF46B06E6E74FF4CC
:104DE0001D06E3E75C5700003F420F00005027001C
:104DF00000A04E000622FFF745BF70B5057CF5B157
:104E000044680023ECB101261130C4F84C314FF452
:104E1000A671C4F81431C4F80407C4F80867204622
:104E2000A662FFF7FBFE05464FF492712046E6624C
:104E3000FFF7F4FE1DB94FF0FF33C4F88034284665
:104E400070BD2546FBE7C36810B5002B044606DAA3
:104E5000FFF7D3FF20B1637CA27C1340E360012005
:104E600010BDC36810B5002B044604DB4FF0FF32C1
:104E7000C260184610BDFFF7C0FF18B1637CA27C6A
:104E80001340F6E74FF0FF33F3E700000C4B0D4AF9
:104E900000215A6041F213221A814FF0FF320A4872
:104EA000DA6018609A741982084B18600848DA6052
:104EB0005860FF2240F20670198218819A74704778
:104EC0000006002000600C507057000014060020FF
:104ED00000700C50F8B505460C4600268F18BC42F1
:104EE00007D02B6828469B6814F8011B9847064496
:104EF000F5E73046F8BD09B1FFF7ECBF084670474B
:104F000038B505460C46084641B1FBF799FA2146EB
:104F100002462846BDE83840FFF7EDBF38BDFFF731
:104F2000EFBF03689B6818470023012A98BF0A2235
:104F300070B58AB00C468DF8243009A9B4FBF2F59F
:104F400002FB1546F3B2092E94BF30333733DBB280
:104F5000A24201F8013D03D9FFF7D2FF0AB070BDAC
:104F60002C46EBE7D2B2FFF7DFBF0A2AF8B50546B9
:104F70000E4617460DD100290BDA03682D219B68D8
:104F800098473A46044671422846FFF7CDFF204431
:104F9000F8BD3A4631462846BDE8F840FFF7C4BFA1
:104FA000D2B2FFF7E2BF00F083B808B500F0E5F831
:104FB00000BF08BD10B5FFF7F6FFFFF7BFFD054BBB
:104FC0000BB1FBF75DFA044C0CB1FBF703FBFFF7E9
:104FD000ECFFF9E781040000D505000000F01EB9E0
:104FE00072B614481449154A914204D250F8043B51
:104FF00041F8043BF8E7124812494FF0000288429A
:1050000002D240F8042BFAE700F0CEF800F0E2F804
:1050100062B6FFF7CFFFFEE7FEE7FEE7FEE7FEE73B
:10502000FEE7FEE7FEE7FEE7FEE7FEE7FEE7FEE758
:10503000704700008C57000000000020680000202E
:105040006800002080060020F8B50027094D0A4CB2
:105050000A4E2B783BB123682BB12760BFF34F8FEB
:105060006B6803B198470434B44205F10805F0D1E8
:10507000F8BD00BF2806002000A10D5020A10D5052
:10508000024B1B780BB1FFF7DFBF704768060020AB
:10509000024B1B780BB1FFF7D7BF704768060020A3
:1050A000024A136801331360704700BF6C0600208A
:1050B00008B500F063F80A4B00211B68B3F57A7F4E
:1050C0002ABF4FF47A724FF47A43B3FBF2F3054AE6
:1050D000013B1160536007239160136008BD00BF5E
:1050E0000000002010E000E0014B1868704700BF8E
:1050F0006C06002010B50D4A0D4C2168906823689D
:105100009942FAD153680B4A01331B1A10680A4AB4
:105110000A4CB0FBF2F2A04298BF40224FF47A70E2
:10512000B3FBF2F300FB013010BD00BF10E000E064
:105130006C0600200000002040420F003F420F009C
:1051400070B50546054C266823689B1BAB4200D30F
:1051500070BD00F012F800BFF6E700BF6C0600203B
:1051600038B50446FFF7C6FF0546FFF7C3FF431BEC
:10517000A34200D338BD00BFF7E77047064B07498D
:10518000D3F80428064B02F00302012A18BF0B468D
:10519000044A1360704700BF000012500090D00313
:1051A0000020A107000000200322084BC3F80028BC
:1051B000074AD3F8041801F00301032901D0013A8A
:1051C00001D1FFF7DBBF00BFF3E700BF00001250C3
:1051D00041420F0070B50D4D00260D4C641BA4100C
:1051E000A64209D10B4D00260B4C00F09FF8641B22
:1051F000A410A64205D170BD55F8043B013698476E
:10520000EEE755F8043B01369847F2E744530000B7
:10521000445300004453000050530000024B014629
:10522000186800F027B800BF0400002030B501392D
:105230000024A24201D1002005E0035D01340D5D90
:10524000AB42F6D0581B30BD0A44431E914200D1F8
:10525000704710B511F8014B914203F8014FF9D195
:1052600010BD02440346934200D1704703F8011B6E
:10527000F9E7000038B50546002945D051F8043C4F
:105280000C1F002BB8BFE41800F042F81F4A136847
:10529000104633B9636014602846BDE8384000F01A
:1052A0003DB8A3420BD921686218934202BF1A6825
:1052B0005B685218636008BF22600460ECE71A461E
:1052C0005B680BB1A342FAD911685018A0420BD108
:1052D00020680144501811608342DDD118685B6872
:1052E000014453601160D7E702D90C232B60D3E748
:1052F000206821188B4202BF19685B680918636037
:1053000008BF21605460C7E738BD00BF70060020A9
:10531000014800F009B800BF78060020014800F0FD
:1053200004B800BF7806002070477047F8B500BF8A
:10533000F8BC08BC9E467047F8B500BFF8BC08BC76
:045340009E467047CE
:0C53440025040000F90800008D4E000058
:045350000104000054
:105354005B74726163655D20004F4B004641494CAC
:10536400000D0A426C6550616972696E67456E632F
:1053740072797074696F6E53746174757320737489
:105384006172740D0A00424C452073746570206686
:1053940061696C65643A20626567696E0D0A004252
:1053A4004C452073746570206661696C65643A20AD
:1053B4007365744465766963654164647265737387
:1053C4000D0A005835342D5041495200424C4520B5
:1053D40073746570206661696C65643A20736574E2
:1053E4004164766572746973696E67506475547943
:1053F40070650D0A005835342D504149522D5343E0
:10540400414E00424C452073746570206661696C9E
:1054140065643A207365744164766572746973696E
:105424006E674E616D650D0A005835342050616910
:1054340072696E672050726F626500424C4520733A
:10544400746570206661696C65643A207365745391
:1054540063616E526573706F6E73654E616D650D39
:105464000A00424C452073746570206661696C655E
:10547400643A20736574476174744465766963653E
:105484004E616D650D0A00424C45207374657020B1
:105494006661696C65643A2073657447617474422B
:1054A4006174746572794C6576656C0D0A00424CC2
:1054B4004520696E69743A200050616972206672F1
:1054C4006F6D2070686F6E6520616E642077617403
:1054D400636820656E6372797074696F6E2073748B
:1054E400617465207472616E736974696F6E732E72
:1054F4000D0A004F4E004F464600424C45206E6F49
:10550400742072656164793B20736B697070696E95
:1055140067206164766572746973652F706F6C6C53
:105524000D0A00646973636F6E6E65637465640D60
:105534000A006164766572746973696E670D0A00A6
:10554400636F6E6E656374656420706565723D009B
:1055540020696E743D00656E6372797074696F6E54
:105564003D002063653D006C6C5F6374726C206F5A
:10557400703D307800206E65773D002074785F6F51
:105584006B3D002074785F6C6C69643D0020747816
:105594005F6C656E3D002074785F6F703D307800FD
:1055A4006C696E6B207465726D696E617465640DEF
:1055B4000A00020051001554DEC05849414F2D6EB7
:1055C400524635344C31350000A0105000820D5045
:1055D4000004055001000028020003280300002AEB
:1055E400040003280500012A060003280700042AF2
:1055F40008000028090003280A00052A0B000229D4
:1056040010000028110003281200192A130002298F
:10561400020002000300002A040002000500012A1F
:10562400060002000700042A090020000A00052AD7
:10563400110012001200192A0100070000180800C6
:105644000B000118100013000F18000102040810C9
:105654002040801B36637C777BF26B6FC53001671B
:105664002BFED7AB76CA82C97DFA5947F0ADD4A2D6
:10567400AF9CA472C0B7FD9326363FF7CC34A5E5A2
:10568400F171D8311504C723C31896059A071280FF
:10569400E2EB27B27509832C1A1B6E5AA0523BD633
:1056A400B329E32F8453D100ED20FCB15B6ACBBE58
:1056B400394A4C58CFD0EFAAFB434D338545F90204
:1056C4007F503C9FA851A3408F929D38F5BCB6DA19
:1056D4002110FFF3D2CD0C13EC5F974417C4A77EBF
:1056E4003D645D197360814FDC222A908846EEB8D0
:1056F40014DE5E0BDBE0323A0A4906245CC2D3AC0A
:10570400629195E479E7C8376D8DD54EA96C56F44E
:10571400EA657AAE08BA78252E1CA6B4C6E8DD740C
:105724001F4BBD8B8A703EB5664803F60E61355734
:10573400B986C11D9EE1F8981169D98E949B1E8784
:10574400E9CE5528DF8CA1890DBFE6426841992D29
:105754000FB054BB1600000000A0105000820D5082
:10576400000405500000000000000000514B000040
:10577400534B0000394C0000474E0000634E0000BC
:08578400414B00004F4B0000F7
:10578C000090D00308000020000000000000000082
:10579C0000000000000000000000000000000000FD
:1057AC0000000000000000000000000000000000ED
:1057BC0000000000000000000000000000000000DD
:1057CC0000000000000000000000000000000000CD
:1057DC0000000000000000000000000000000000BD
:0857EC000000000000000000B5
:0400000300004FE1C9
:00000001FF
