:10000000000001206D190000A5190000A7190000CB
:10001000A9190000AB190000AD190000AF190000CC
:10002000000000000000000000000000B119000006
:10003000B319000000000000B51900002D1A0000DF
:10004000BB190000BB190000BB190000BB19000060
:10005000BB190000BB190000BB190000BB19000050
:10006000BB190000BB190000BB190000BB19000040
:10007000BB190000BB190000BB190000BB19000030
:10029000BB190000B7190000B9190000BB19000014
:1002A000BB190000BB190000BB190000BB190000FE
:1002B000BB190000BB190000BB190000BB190000EE
:1002C000BB190000BB190000BB190000BB190000DE
:1002D000BB190000BB190000BB190000BB190000CE
:1002E000BB190000BB190000BB190000BB190000BE
:1002F000BB190000BB190000BB190000BB190000AE
:10030000BB190000BB190000BB190000BB1900009D
:10031000BB190000BB190000BB190000BB1900008D
:10032000BB190000BB190000BB190000BB1900007D
:10033000BB190000BB190000BB190000BB1900006D
:10034000BB190000BB190000BB190000BB1900005D
:10035000BB190000BB190000BB190000BB1900004D
:10036000BB190000BB190000BB190000BB1900003D
:10037000BB190000BB190000BB190000BB1900002D
:10038000BB190000BB190000BB190000BB1900001D
:10039000BB190000BB190000BB190000BB1900000D
:1003A000BB190000BB1900000D1A00001D1A000047
:1003B000BB190000BB190000BB190000BB190000ED
:1003C000BB190000BB190000BB190000BB190000DD
:1003D000BB190000BB190000BB190000BB190000CD
:1003E000BB190000BB190000BB190000BB190000BD
:1003F000BB190000BB190000BB190000BB190000AD
:1004000010B5054C237833B9044B13B1044800E010
:1004100000BF0123237010BD680000200000000011
:10042000641C000008B5034B1BB10349034800E0FE
:1004300000BF08BD000000006C000020641C00002C
:1004400081F0004102E000BF83F0004330B54FEA85
:1004500041044FEA430594EA050F08BF90EA020FF2
:100460001FBF54EA000C55EA020C7FEA645C7FEA85
:10047000655C00F0E2804FEA5454D4EB5555B8BFA8
:100480006D420CDD2C4480EA020281EA030382EA19
:10049000000083EA010180EA020281EA0303362DAB
:1004A00088BF30BD11F0004F4FEA01314FF4801C7E
:1004B0004CEA113102D0404261EB410113F0004F90
:1004C0004FEA03334CEA133302D0524263EB430347
:1004D00094EA050F00F0A780A4F10104D5F1200EE5
:1004E0000DDB02FA0EFC22FA05F2801841F1000140
:1004F00003FA0EF2801843FA05F359410EE0A5F114
:1005000020050EF1200E012A03FA0EFC28BF4CF044
:10051000020C43FA05F3C01851EBE37101F00045FA
:1005200007D54FF0000EDCF1000C7EEB00006EEB07
:100530000101B1F5801F1BD3B1F5001F0CD3490891
:100540005FEA30004FEA3C0C04F101044FEA4452E8
:1005500012F5800F80F09A80BCF1004F08BF5FEA6F
:10056000500C50F1000041EB045141EA050130BD4F
:100570005FEA4C0C404141EB0101013C28BFB1F561
:10058000801FE9D291F0000F04BF01460020B1FAAC
:1005900081F308BF2033A3F10B03B3F120020CDA7F
:1005A0000C3208DD02F1140CC2F10C0201FA0CF05D
:1005B00021FA02F10CE002F11402D8BFC2F1200CC2
:1005C00001FA02F120FA0CFCDCBF41EA0C01904078
:1005D000E41AA2BF01EB0451294330BD6FEA0404C1
:1005E0001F3C1CDA0C340EDC04F11404C4F12002AC
:1005F00020FA04F001FA02F340EA030021FA04F3BE
:1006000045EA030130BDC4F10C04C4F1200220FA14
:1006100002F001FA04F340EA0300294630BD21FA52
:1006200004F0294630BD94F0000F83F4801306BF18
:1006300081F480110134013D4EE77FEA645C18BF0C
:100640007FEA655C29D094EA050F08BF90EA020FA3
:1006500005D054EA000C04BF1946104630BD91EA9B
:10066000030F1EBF0021002030BD5FEA545C05D19E
:100670004000494128BF41F0004130BD14F58004DD
:100680003CBF01F5801130BD01F0004545F0FE4151
:1006900041F470014FF0000030BD7FEA645C1ABF86
:1006A000194610467FEA655C1CBF0B46024650EABD
:1006B000013406BF52EA033591EA030F41F40021E9
:1006C00030BD00BF90F0000F04BF0021704730B56F
:1006D0004FF4806404F132044FF000054FF0000144
:1006E00050E700BF90F0000F04BF0021704730B505
:1006F0004FF4806404F1320410F0004548BF4042DA
:100700004FF000013EE700BF42004FEAE2014FEA2E
:1007100031014FEA02701FBF12F07F4393F07F4F09
:1007200081F06051704732F07F4208BF704793F00C
:100730007F4F04BF41F40021704730B54FF460741F
:1007400001F0004521F000411CE700BF50EA010222
:1007500008BF704730B54FF000050AE050EA0102CB
:1007600008BF704730B511F0004502D5404261EB3B
:1007700041014FF4806404F132045FEA915C3FF47C
:10078000D8AE4FF003025FEADC0C18BF03325FEA19
:10079000DC0C18BF033202EBDC02C2F1200300FACA
:1007A00003FC20FA02F001FA03FE40EA0E0021FAEF
:1007B00002F11444BDE600BF70B54FF0FF0C4CF4DD
:1007C000E06C1CEA11541DBF1CEA135594EA0C0F8F
:1007D00095EA0C0F00F0DEF82C4481EA030621EACA
:1007E0004C5123EA4C5350EA013518BF52EA033505
:1007F00041F4801143F4801338D0A0FB02CE4FF0B7
:100800000005E1FB02E506F00042E0FB03E54FF0E6
:100810000006E1FB03569CF0000F18BF4EF0010EDE
:10082000A4F1FF04B6F5007F64F5407404D25FEADA
:100830004E0E6D4146EB060642EAC62141EA55518D
:100840004FEAC52040EA5E504FEACE2EB4F1FD0CCF
:1008500088BFBCF5E06F1ED8BEF1004F08BF5FEA4D
:10086000500E50F1000041EB045170BD06F00046FF
:1008700046EA010140EA020081EA0301B4EB5C04AC
:10088000C2BFD4EB0C0541EA045170BD41F48011A4
:100890004FF0000E013C00F3AB8014F1360FDEBFC9
:1008A000002001F0004170BDC4F10004203C35DAA5
:1008B0000C341BDC04F11404C4F1200500FA05F328
:1008C00020FA04F001FA05F240EA020001F00042C9
:1008D00021F0004110EBD37021FA04F642EB06013F
:1008E0005EEA430E08BF20EAD37070BDC4F10C0469
:1008F000C4F1200500FA04F320FA05F001FA04F22D
:1009000040EA020001F0004110EBD37041F1000118
:100910005EEA430E08BF20EAD37070BDC4F1200523
:1009200000FA05F24EEA020E20FA04F301FA05F28B
:1009300043EA020321FA04F001F0004121FA04F233
:1009400020EA020000EBD3705EEA430E08BF20EA03
:10095000D37070BD94F0000F0FD101F0004640003D
:1009600041EB010111F4801F08BF013CF7D041EABF
:10097000060195F0000F18BF704703F000465200C3
:1009800043EB030313F4801F08BF013DF7D043EA94
:100990000603704794EA0C0F0CEA135518BF95EA4A
:1009A0000C0F0CD050EA410618BF52EA4306D1D1D1
:1009B00081EA030101F000414FF0000070BD50EAF0
:1009C000410606BF1046194652EA430619D094EA7A
:1009D0000C0F02D150EA013613D195EA0C0F05D164
:1009E00052EA03361CBF104619460AD181EA0301B8
:1009F00001F0004141F0FE4141F470014FF0000070
:100A000070BD41F0FE4141F4780170BD70B54FF00A
:100A1000FF0C4CF4E06C1CEA11541DBF1CEA13558A
:100A200094EA0C0F95EA0C0F00F0A7F8A4EB05046C
:100A300081EA030E52EA03354FEA013100F0888063
:100A40004FEA03334FF0805545EA131343EA12632C
:100A50004FEA022245EA111545EA10654FEA0026E1
:100A60000EF000419D4208BF964244F1FD0404F59A
:100A7000407402D25B084FEA3202B61A65EB0305F6
:100A80005B084FEA32024FF480104FF4002CB6EBB3
:100A9000020E75EB030E22BFB61A754640EA0C0033
:100AA0005B084FEA3202B6EB020E75EB030E22BF73
:100AB000B61A754640EA5C005B084FEA3202B6EBB4
:100AC000020E75EB030E22BFB61A754640EA9C0073
:100AD0005B084FEA3202B6EB020E75EB030E22BF43
:100AE000B61A754640EADC0055EA060E18D04FEA01
:100AF000051545EA16754FEA06164FEAC30343EAA1
:100B000052734FEAC2025FEA1C1CC0D111F4801F6D
:100B10000BD141EA00014FF000004FF0004CB6E766
:100B200011F4801F04BF01430020B4F1FD0C88BF05
:100B3000BCF5E06F3FF6AFAEB5EB030C04BFB6EB10
:100B4000020C5FEA500C50F1000041EB045170BD03
:100B50000EF0004E4EEA113114EB5C04C2BFD4EB30
:100B60000C0541EA045170BD41F480114FF0000EB4
:100B7000013C90E645EA060E8DE60CEA135594EA30
:100B80000C0F08BF95EA0C0F3FF43BAF94EA0C0F33
:100B90000AD150EA01347FF434AF95EA0C0F7FF4A8
:100BA00025AF104619462CE795EA0C0F06D152EAFC
:100BB00003353FF4FDAE1046194622E750EA4106E0
:100BC00018BF52EA43067FF4C5AE50EA41047FF4F1
:100BD0000DAF52EA43057FF4EBAE12E74FEA410254
:100BE00012F5001215D211D56FF47873B3EB62527F
:100BF00012D94FEAC12343F0004343EA505311F0A6
:100C0000004F23FA02F018BF404270474FF0000037
:100C1000704750EA013005D111F0004008BF6FF075
:100C2000004070474FF00000704700BF53B94AB909
:100C3000002908BF00281CBF4FF0FF314FF0FF30E4
:100C400000F070B9ADF1080C6DE904CE00F006F8C3
:100C5000DDF804E0DDE9022304B070472DE9F04738
:100C6000089E0D4604468A46002B7FD18A421746CD
:100C700041D9B2FA82F24AB1C2F1200105FA02F377
:100C80009740944020FA01F141EA030A4FEA1748DD
:100C90004FEA144C1FFA87F9BAFBF8FE08FB1EA3B3
:100CA0000EFB09F14CEA0343994206D9FB1802D224
:100CB000994200F224810EF1FF3E591AA3B2B1FB12
:100CC000F8F008FB101100FB09F943EA0144A145C3
:100CD00005D93C1902D2A14500F20E810138A4EBDE
:100CE000090440EA0E4000211EB1D4400023C6E9A9
:100CF0000043BDE8F08702B9FFDEB2FA82F2002AB3
:100D00004FD1CB1B4FEA174E1FFA87F80121250C54
:100D1000B3FBFEFC0EFB1C302B4608FB0CF945EA2E
:100D20000045A9450AD97D192CBF01230023A945F7
:100D300002D9002B00F0D9800CF1FF3CA5EB09058E
:100D4000A3B2B5FBFEF00EFB105508FB00F843EA1A
:100D50000544A04505D93C1902D2A04500F2C9803E
:100D60000138A4EB080440EA0C40BDE78B4208D9E7
:100D7000002E00F0B1800021C6E900050846BDE85C
:100D8000F087B3FA83F1002946D1AB42C0F0A780C7
:100D9000824240F2A4800846002EAAD0C6E9004A4A
:100DA000A7E7C2F12000974001FA02F34FEA174E7D
:100DB000C14024FA00F51FFA87F894401D43B1FBA7
:100DC000FEF02B0C0EFB101100FB08FC43EA014364
:100DD0009C4509D9FB182CBF012100219C4502D953
:100DE000002900F095800138A3EB0C03ADB2B3FBF2
:100DF000FEF10EFB113301FB08FC45EA0345AC454F
:100E000005D97D1902D2AC4500F289800139A5EBE4
:100E10000C0341EA00417AE7C1F120048B4002FA59
:100E200001F705FA01FCE24020FA04F8E54000FA77
:100E300001FE134348EA0C024FEA13484FEA124CF2
:100E40001FFA83F9B5FBF8FA08FB1A550AFB09F0FB
:100E50004CEA054C60450AD913EB0C0C2CBF01255C
:100E60000025604501D9002D55D00AF1FF3AACEBC1
:100E7000000C92B2BCFBF8F008FB10CC00FB09F9A7
:100E800042EA0C4CE14505D913EB0C0C01D2E145CB
:100E90003BD8013840EA0A40ACEB090CA0FB0789BB
:100EA000CC4545464A4602D306D1C64504D2013850
:100EB000B8EB070569EB03022EB3BEEB05036CEB41
:100EC000020C23FA01F20CFA04F42CFA01F30021CB
:100ED0001443C6E900430CE73146304609E7841A5B
:100EE00065EB030301209A4656E7ACF1020C3D4442
:100EF00024E702383C4434E702383C44EFE6AEF1E4
:100F0000020E3B44D9E63146F3E602389C44C1E781
:100F100002383B4468E7AAF1020A9C44A7E7023979
:100F20003D4474E7704700BF034613F8012B002AC5
:100F3000FBD1181A013870474FF4E13108B5094860
:100F400000F0F6FB074800F061FC0028FAD04FF4EF
:100F50007A7000F0B5FDBDE808400349014800F093
:100F6000A3BC00BF8C000020881C000010B50D4CF5
:100F700041F2883120460C4A00F0F6F910B94FF0E2
:100F8000FF33236021680A22084800F0CFFC08499B
:100F9000064800F089FCBDE810404FF47A7000F07C
:100FA0008FBD00BF8400002020A107008C0000201E
:100FB000971C000008442AB10368013A002BFAD0BC
:100FC00001207047104670470378022B05D84078FF
:100FD0001F288CBF002001207047002070470000B0
:100FE000F8B505460F461446FFF7EEFFF0B12B7833
:100FF000022B1CD8104A52F82330D3B101266A784C
:1010000003F1800505EB820596402A68012F22F046
:101010000F024FEA840408BF42F0030204F00C04FC
:1010200044EA02040CBF5E619E612C60F8BD0020A2
:10103000FCE71846FAE700BF9C1C000038B50446E0
:101040000D46FFF7C1FF78B12378022B0DD8094A6E
:1010500052F823305BB101226178002D02FA01F2CF
:1010600014BF042108215A5038BD0020FCE718465F
:10107000FAE700BF9C1C0000002310B40468017153
:101080008371C4F800350468C4F8F0150168C1F82C
:10109000F4350168C1F8F8350168C1F8543601210A
:1010A0000468C4F800150468C4F81031036810BC63
:1010B000D96000684FF48871FFF77CBF0023026895
:1010C000C2F80035837170470729F8B504460D460C
:1010D00016461F464DD81046FFF776FF002847D02A
:1010E0003378012B45D17678331FDBB20A2B40D8F9
:1010F000214AD356002B3CDB40F23F1CBDF81820A0
:101100000021624528BF6246012A38BF0122944669
:101110009DF81C208E46072A28BF0722012A38BFC7
:101120000122236803F5A26343F801E0236803F278
:10113000145343F801E010318029F2D1236846F0BE
:1011400080462D0103F5A26346F480765E51236844
:10115000120703F2145343F805E0236842EA07221A
:1011600003F5A36342EA0C425A5101236771A3714C
:10117000F8BD0020FCE700BFE01C00008379F7B554
:1011800004460D46164613B9002003B0F0BD0029F1
:10119000FAD000230168ADF80630C1F800310168CB
:1011A0000127C1F804310168C1F8143103680DF159
:1011B0000601C3F82C1602210368C3F83016036831
:1011C0004FF480711F600068FFF7F4FE0028DBD049
:1011D000236832465F604FF482712068FFF7EAFEB1
:1011E0000028D1D0236832469F604FF48A7120686E
:1011F000FFF7E0FE0028C7D02368D3F83436BB429F
:10120000C2D9BDF806302B80BFE700002DE9F347B7
:1012100000270D460DF106010646ADF80670FFF7F2
:10122000ADFF044698B34FF0010ABDF9063072795C
:10123000BB423379B8BFADF8067004335B00DBB254
:10124000062A0AFA03FA26D8154B03EBC203D3E9A0
:101250000089BDF90600FFF745FA0022114BFFF7A0
:10126000ABFA064650460F46FFF72CFA42464B466D
:10127000FFF7A2FA02460B4630463946FFF7C6FB97
:101280000022094BFFF7E2F8FFF7A8FC2860204690
:1012900002B0BDE8F0874FF00008DFF81090D8E703
:1012A000A81C000000208C400000E03F0000D03F60
:1012B00010B50022044601210548FFF791FE28B130
:1012C0002146BDE810400248FFF7B8BE10BD00BF80
:1012D000ED1C0000F0B5224B87B0049340F202737E
:1012E000ADF81430002306460D4604A80221174627
:1012F0008DF81630FFF7C0FE18B90021084607B078
:10130000F0BD0120FFF7D4FF044618B115B12846FF
:1013100000F0E6FB002103917CB900240020FFF7D8
:10132000C7FF014604A8FFF7C9FE002CE5D000293D
:10133000E3D0039B5B003360E0E79F23042204A813
:10134000CDE900320723074AFFF7BEFE0028E4D0AC
:101350003A4603A904A8FFF759FF0446DEE700BF99
:1013600000500D50EB1C000008B1FFF7B3BF7047F1
:10137000064B53F8200038B1012303FA01F1416113
:101380000AB1416070478160704700BFF01C0000E7
:10139000431E10B501225C424FF003014FF00200E2
:1013A0005C41FFF7E5FF0122044B05211A70022082
:1013B0002246FFF7DDFF024B1C7010BD8A000020A3
:1013C0008B000020002208B510460121FFF7D0FF56
:1013D0000022064B01200F211A70FFF7C9FF044BB2
:1013E00010461A70BDE80840FFF7D2BF8800002001
:1013F000890000200020704710B5044603681B696F
:101400009847A06910BD70477047F8B505460C466F
:10141000174600F02FFB06462C4400F02BFB801BE8
:10142000B84204D22368002BF7D0012003E02068E3
:10143000003818BF0120F8BD10B5044600F094FA3A
:10144000204610BD13285AD8DFE800F00A0F131702
:101450001B1F23292D3236393D3F43474B4F5551F2
:1014600001200423087013707047012005230870C1
:10147000F9E7012006230870F5E70120072308702B
:10148000F1E701200A230870EDE701200B23087023
:10149000E9E702230B700823012013707047022331
:1014A0000B700723F8E7022301200B7010707047C0
:1014B00002230B700423EFE702230B70ECE70023F9
:1014C0000B700323E8E70023F3E702230B700A23E2
:1014D000E2E702230B700923DEE702230B700623E9
:1014E000DAE702230B700023D6E70023E5E70120AB
:1014F00008230870B7E7012009230870B3E700202C
:101500007047000000000000F8B5047FB4B305691F
:1015100095B31BA7D7E9006790F826300022194041
:101520000346012403F8251FC5F86821C5F83C3798
:10153000C5F840472C65006A0023904208BF4FF46D
:1015400016500246301847F10001FFF76FFB4FF4C9
:10155000B47100F5FA622846FFF757FF064668B9EE
:10156000C5F830014FF4FA624FF4987128466C6563
:10157000FFF74BFF3046F8BD2846FCE72046FAE768
:10158000FF1AB7000000000070B500254FF47A760E
:10159000027543754FF416524FF0FF33C0E9015600
:1015A000054EC5600660016183610577026285842E
:1015B00080F8263070BD00BF101D00000369F7B52C
:1015C00005460E461446002B00F097800023007D50
:1015D0000DF1050201A98DF804308DF805308DF864
:1015E00006308DF80730FFF72DFF002800F08580CA
:1015F000687D0DF107020DF10601FFF723FF0028BA
:101600007BD09DF804209DF805C0022A08D8444BE1
:1016100053F8221021B1012303FA0CF34B614B6004
:101620009DF806309DF80700022B10D83C4951F870
:10163000231061B1012787408F6101EB8001D1F850
:10164000807027F00F0747F00C07C1F88070002763
:1016500052015B01296900F01F00D2B20CF01F0C8F
:10166000DBB2034342EA0C02C1F80075C1F804265C
:10167000C1F80C364FF0FF33C4F34102032AC1F81E
:101680000836C1F8103618BF012302F105001CBF4F
:10169000834003F1FF3304F030020CBFFF23DBB2C1
:1016A000202A2CD0302A2CD14FF4807242F00E0226
:1016B00085F8263064001B4B04F0100414439E424E
:1016C000C1F86C451FD8B6F5E13F1FD2B6F5614FA2
:1016D0001FD2B6F5164F1FD2134B144AB6F5964FCC
:1016E00028BF1346C1F824350823C1F800354FF050
:1016F000FF33AB6101232E622B7703B0F0BD0022D4
:10170000D4E70022D4E74FF08053EBE74FF0EB73C0
:10171000E8E74FF46B03E5E74FF41D03E2E700BF92
:10172000FC1C00003F420F000050270000A04E00AC
:101730000622FFF743BF00002DE97043057FA5B3E4
:1017400004690023A4B30FF27009D9E900890126C6
:10175000C4F84C31C4F8143100F12403C4F8043740
:10176000C4F80867A662006A0023002808BF4FF487
:101770001650024618EB000049F10001FFF756FA37
:101780004FF4A67100F5FA622046FFF73EFE0546CB
:101790004FF4FA624FF492712046E662FFF735FE8D
:1017A0001DB94FF0FF33C4F880342846BDE870837C
:1017B0002546FAE7AFF30080FF1AB70000000000EB
:1017C000836910B5002B044608DAFFF7B5FF30B186
:1017D00094F8243094F826201340A361012010BD12
:1017E000836910B5002B044604DB4FF0FF328261A1
:1017F000184610BDFFF7A0FF28B194F8243094F8E4
:1018000026201340F4E74FF0FF33F1E70346007F53
:1018100018B11869003818BF0120704710B513239C
:10182000122206490648FFF7AFFEBDE81040072325
:10183000062204490448FFF7A7BE00BF00600C5011
:101840008C00002000700C50B40000200368C9B266
:101850009B681847F8B506460C4661B10F46002450
:101860008D18BD4207D0336830469B6817F8011BBE
:1018700098470444F5E72046F8BD38B505460846C4
:101880000C46FFF751FB214602462846BDE838408A
:10189000FFF7E0BF09B1FFF7F0BF0846704708B592
:1018A0000A21FFF7D3FF08BD38B50546FFF7F2FF61
:1018B00004462846FFF7F3FF204438BD0023012AE1
:1018C00098BF0A2270B58AB00C468DF8243009A959
:1018D000B4FBF2F502FB1546F3B2092E94BF303388
:1018E0003733DBB2A24201F8013D03D9FFF7D2FF43
:1018F0000AB070BD2C46EBE70A2AF8B507460D463C
:1019000016460CD100290ADA2D21FFF79FFF324637
:10191000044669423846FFF7D1FF2044F8BD3246FD
:1019200029463846BDE8F840FFF7C8BFD2B2FFF7F6
:10193000E3BF00F083B808B500F0DFF800BF08BDD2
:1019400010B5FFF7F6FFFFF73DFD054B0BB1FFF7B5
:10195000F3FA044C0CB1FFF709FBFFF7ECFFF9E7D2
:10196000390F00006D0F000000F018B972B614486E
:101970001449154A914204D250F8043B41F8043B03
:10198000F8E7124812494FF00002884202D240F8AC
:10199000042BFAE700F0C8F800F0DCF862B6FFF7B5
:1019A000CFFFFEE7FEE7FEE7FEE7FEE7FEE7FEE726
:1019B000FEE7FEE7FEE7FEE7FEE7FEE77047000012
:1019C000381D000000000020680000206800002092
:1019D00034010020F8B50027094D0A4C0A4E2B7837
:1019E0003BB123682BB12760BFF34F8F6B6803B106
:1019F00098470434B44205F10805F0D1F8BD00BFA2
:101A0000DC00002000A10D5020A10D50024B1B78DE
:101A10000BB1FFF7DFBF70471C010020024B1B78A2
:101A20000BB1FFF7D7BF70471C010020024A1368B3
:101A300001331360704700BF2001002008B500F09B
:101A40005DF80A4B00211B68B3F57A7F2ABF4FF47B
:101A50007A724FF47A43B3FBF2F3054A013B11600B
:101A6000536007239160136008BD00BF0000002091
:101A700010E000E010B50D4A0D4C21689068236815
:101A80009942FAD153680B4A01331B1A10680A4A6B
:101A90000A4CB0FBF2F2A04298BF40224FF47A7099
:101AA000B3FBF2F300FB013010BD00BF10E000E01B
:101AB000200100200000002040420F003F420F00A4
:101AC00070B50546054C266823689B1BAB4200D3C6
:101AD00070BD00F012F800BFF6E700BF2001002043
:101AE00038B50446FFF7C6FF0546FFF7C3FF431BA3
:101AF000A34200D338BD00BFF7E77047064B074944
:101B0000D3F80428064B02F00302012A18BF0B4643
:101B1000044A1360704700BF000012500090D003C9
:101B20000020A107000000200322084BC3F8002872
:101B3000074AD3F8041801F00301032901D0013A40
:101B400001D1FFF7DBBF00BFF3E700BF0000125079
:101B500041420F0070B50D4D00260D4C641BA410C2
:101B6000A64209D10B4D00260B4C00F07BF8641BFC
:101B7000A410A64205D170BD55F8043B0136984724
:101B8000EEE755F8043B01369847F2E77C1C00006D
:101B90007C1C00007C1C0000841C0000024B0146E1
:101BA000186800F003B800BF0400002038B50546EF
:101BB000002945D051F8043C0C1F002BB8BFE41895
:101BC00000F042F81F4A1368104633B9636014608E
:101BD0002846BDE8384000F03DB8A3420BD9216843
:101BE0006218934202BF1A685B685218636008BFAC
:101BF00022600460ECE71A465B680BB1A342FAD995
:101C000011685018A0420BD120680144501811608F
:101C10008342DDD118685B68014453601160D7E7E7
:101C200002D90C232B60D3E7206821188B4202BF16
:101C300019685B680918636008BF21605460C7E7D2
:101C400038BD00BF24010020014800F009B800BFE2
:101C50002C010020014800F004B800BF2C01002036
:101C600070477047F8B500BFF8BC08BC9E46704787
:0C1C7000F8B500BFF8BC08BC9E467047E9
:081C7C00250400001D18000002
:041C84000104000057
:101C88005662617420526561642054657374002043
:101C98006D56000000A0105000820D500004055041
:101CA8000000000000000040000000000000F03FBD
:101CB800555555555555E53F000000000000E03FDB
:101CC8009A9999999999D93F555555555555D53F4B
:101CD800922449922449D23F00010203FFFFFF04E6
:101CE800050607010E010F0000A0105000820D50DC
:101CF8000004055000A0105000820D50000405504B
:101D08000000000000000000091400003914000061
:101D180009150000F5130000C1170000E1170000C5
:081D2800F9130000071400008C
:081D30002CEFFF7F0100000011
:101D38000090D00308000020000000000000000010
:101D4800000000000000000000000000000000008B
:101D5800000000000000000000000000000000007B
:101D6800000000000000000000000000000000006B
:101D7800000000000000000000000000000000005B
:101D8800000000000000000000000000000000004B
:081D9800000000000000000043
:040000030000196D73
:00000001FF
