:100000000000012001510000395100003B51000067
:100010003D5100003F51000041510000435100009C
:10002000000000000000000000000000455100003A
:10003000475100000000000049510000C15100007C
:100040004F5100004F5100004F5100004F51000030
:100050004F5100004F5100004F5100004F51000020
:100060004F5100004F5100004F5100004F51000010
:100070004F5100004F5100004F5100004F51000000
:100290004F5100004B5100004D5100004F510000E4
:1002A0004F5100004F5100004F5100004F510000CE
:1002B0004F5100004F5100004F5100004F510000BE
:1002C0004F5100004F5100004F5100004F510000AE
:1002D0004F5100004F5100004F5100004F5100009E
:1002E0004F5100004F5100004F5100004F5100008E
:1002F0004F5100004F5100004F5100004F5100007E
:100300004F5100004F5100004F5100004F5100006D
:100310004F5100004F5100004F5100004F5100005D
:100320004F5100004F5100004F5100004F5100004D
:100330004F5100004F5100004F5100004F5100003D
:100340004F5100004F5100004F5100004F5100002D
:100350004F5100004F5100004F5100004F5100001D
:100360004F5100004F5100004F5100004F5100000D
:100370004F5100004F5100004F5100004F510000FD
:100380004F5100004F5100004F5100004F510000ED
:100390004F5100004F5100004F5100004F510000DD
:1003A0004F5100004F510000A1510000B151000019
:1003B0004F5100004F5100004F5100004F510000BD
:1003C0004F5100004F5100004F5100004F510000AD
:1003D0004F5100004F5100004F5100004F5100009D
:1003E0004F5100004F5100004F5100004F5100008D
:1003F0004F5100004F5100004F5100004F5100007D
:1004000010B5054C237833B9044B13B1044800E010
:1004100000BF0123237010BD680000200000000011
:100420004C54000008B5034B1BB10349034800E0DE
:1004300000BF08BD000000006C0000204C5400000C
:10044000034613F8012B002AFBD1181A0138704714
:1004500010B5044668B10749074804F0E2FD21469B
:10046000054804F0DEFDBDE810400449024804F0F0
:10047000D8BD10BD74540000F00500200F560000D8
:1004800038B54FF4E1313C4804F036FD4FF4AF701D
:1004900004F0E6FE3949384804F0C3FD002201218A
:1004A000374800F01FFF0121354800F049FF35496A
:1004B0003548002201F005FA0021334804F026FBFC
:1004C00000284FD1314900242B4804F0AAFD304BBD
:1004D0001C703049284804F0A4FD2F4B2F492648B2
:1004E000002C08BF194604F09CFD2D49224804F059
:1004F00098FDBDE838402B491F4804F092BD012209
:100500002949214801F0C8F808B92849DBE72849FA
:100510001D4801F066F908B92649D4E726491A486A
:1005200001F04AF81A4D044628B92449124804F04B
:1005300078FD2C70CDE76021134801F054F8044693
:1005400008B91F49F2E7012300211E482B7000F073
:100550002AFFBEE700210C4801F085F80028CED123
:100560001949B0E701221949074801F0F6F80028B7
:10057000F0D11749A7E700BFF00500208054000024
:10058000CE5600005104000098000020A554000041
:1005900084000020CD550000CC5800007D540000A0
:1005A0000F560000D8550000E2540000225500000C
:1005B000145500005A5500004855000081550000B0
:1005C000A6550000E0050020EB540000D0560000C6
:1005D000BE5400002DE9F041A94B92B01B7883B9BD
:1005E00004F012FEA74A1368C31AB3F5FA6F04D3D6
:1005F0001060A549A54804F014FD0A2004F030FE5F
:1006000038E1A34801F01DF9002835D1A14C237829
:1006100043B1A14B20701870A04BA14918709B48A2
:1006200004F0FFFC0D2200210AA804F0AAFE9D4B55
:100630004FF4AF72009396489B4B0AA903F01EFA41
:100640009DF82B3053B1012300222370934B1A7075
:100650000121964800F074FE0120CFE704F0D4FD9C
:10066000934A1368C31AB3F5FA6FF1D31060914936
:10067000864804F0D6FCEBE71C22002103A804F016
:1006800080FE03A98C4A824803F02AFB834E05466C
:10069000317800293DD100283BD09DF80C30002B4B
:1006A00037D020220AA804F06CFE79480AA901F08C
:1006B000D8F8002800F0E1808049744804F0B1FCCB
:1006C0000524DFF8C8810DF12D0717F801390F2B2C
:1006D00003D83021404604F0A6FC10224046797829
:1006E00004F0D0FC1CB13A21404604F09CFC013CD3
:1006F000EBD27349654804F094FCBDF838100A2227
:10070000624804F0DDFC6F49604804F08AFC012374
:1007100033705F4801F098F85F4F04463B7883429E
:100720001ED069493870594804F07BFC6749684B12
:100730005648002C08BF194604F073FC65B19DF8BB
:100740000C304BB16349514804F06BFC0A22BDF8F0
:1007500016104E4804F0B4FC5A494C4804F061FCB1
:10076000002D7ED09DF80C30002B6ED09DF80D3002
:10077000002B6AD09DF80E30002B66D09DF8123009
:10078000002B62D05449414804F04BFC9DF81B30CB
:100790000F2B03D830213D4804F045FC10229DF872
:1007A0001B103A4804F06EFC4C49384804F039FC00
:1007B0000A229DF81010354804F082FC484933485D
:1007C00004F02FFC0A229DF81410304804F078FC45
:1007D00044492E4804F025FC0A229DF81E102B489F
:1007E00004F050FC4049294804F01BFC0A229DF803
:1007F0001F10264804F046FC9DF81E30032B16D12E
:10080000099BA3B19DF81F308BB138491F4804F0F4
:1008100008FC099B1B780F2B03D830211B4804F0E0
:1008200002FC099B10221978184804F02BFC294976
:10083000164804F0F6FBBDF816100A22134804F01F
:100840003FFC2049114804F0ECFB9DF8113043B106
:1008500027490E4804F0E5FB00230E4A3B70137055
:10086000337084F001011148C9B200F069FD002D18
:100870003FF4F2AE12B0BDE8F0811E4944E700BF7C
:10088000840000209000002016560000F005002093
:10089000980000208C0000208D0000209400002093
:1008A0003F56000060AE0A0030570500CE560000EB
:1008B000880000204E560000D0DD06005C56000087
:1008C0006C5600000F5600007256000028570000BA
:1008D000125600007E56000083560000915600001C
:1008E000975600009F560000A9560000B25600001F
:1008F000BC5600004256000010B5064A064907489B
:1009000000F05AFDBDE81040054A064B1146064866
:1009100000F044BD00C0FF0000A008509800002077
:1009200000E0105000001250E00500200068704701
:1009300010B10170090A41707047043270B502EBC2
:10094000001001F110050A46031F13F8016B14781B
:10095000834284EA060402F8014BF6D10431A9422D
:1009600003F10400EFD170BD421E031D002030B51D
:1009700000F1080412F8015FE4B224280BD815F046
:10098000010F02D051B10139C9B20130C0B2844265
:100990004FEA5505F1D19342EAD1002030BD030959
:1009A00043EA0010C0F38503800000F0CC0003F0A0
:1009B0003303034358085B0003F0AA0300F055001B
:1009C00018437047B0B10023C0F80032C0F80432B9
:1009D000C0F80832C0F80C32C0F81432C0F818322F
:1009E000C0F81C32C0F82032C0F82C32C0F83032C7
:1009F000C0F8BC3270470000084B01449A420CBF5B
:100A0000074A5A4082EA423282EA524282EA42125B
:100A100000F8012B8142F5D1704700BF5AA55AA5B5
:100A2000B53B121F8379012B0FD8437B012B0CD8C8
:100A300090F82830073B092B07D800F10E021E3032
:100A400012F8013B1BB98242FAD100207047012005
:100A5000704730B5431E0139013A0F3013F8014F8A
:100A600011F8015F834284EA050402F8014FF5D1D1
:100A700030BD00230146184610B5DA108A5C03F039
:100A80000704E240D20748BF421C03F1010348BFFC
:100A9000D0B2252BF1D110BD0023026882F80434B6
:100AA00082F80134A2F80234026882F80534026840
:100AB00082F8063470470B2919D0132920D101235D
:100AC00032EA03031CD10B29036812D102F002029F
:100AD000002A14BF0121002114D093F8FC2312B97D
:100AE000012283F8FD2383F8FC13012070470223C1
:100AF000E6E702F0010283F8FF2383F80024F4E71D
:100B00000020704783F8FD2383F8FE23EBE738B518
:100B10001446054602680B4610682146FFF708FF99
:100B200006212A68126891700021D1702A6819463E
:100B300010682246043004F017FC6B6804341B680C
:100B400001201C7038BDF8B51546044610220E462B
:100B50002846002104F015FC2B46012204F1080769
:100B600003F8012B224603CABA42186059601446A2
:100B700003F10803F6D1106876BA186012791A7179
:100B8000EE81F8BDF8B50E461446054640B122B3D5
:100B900004F040FB20230746D5F81C220AB10120AF
:100BA000F8BDD5F81822002AF9D1013B13F0FF0354
:100BB00001D166B92023013CEED1D5F81C32002BBF
:100BC000EDD1D5F81802003818BF0120E8E704F08D
:100BD00021FBC31BB342EDD3EFE71046E0E7F8B5C6
:100BE0000D46044658B104F015FB40F2ED270646C9
:100BF0002023013D04D2D4F82032A3B10120F8BD56
:100C0000D4F82022002AF9D1D4F820251207F5D0F3
:100C1000013B13F0FF03ECD104F0FCFA801BB84257
:100C2000E9D82023E5E7D4F8203513F00F0F0CBFE7
:100C300001200020E3E700F11003013913F8012D32
:100C4000834201F8012FF9D1704700004FF0FF30C7
:100C5000002230B5094C0A4D14F8013B58400823D6
:100C600040F30001013B294013F0FF0381EA5000EB
:100C7000F6D101322C2AEFD1C04330BD7C060020D2
:100C80002083B8ED38B5049C5BB164B10125587080
:100C90001D70981CFFF74CFE1A710523284623800F
:100CA00038BD1846FCE72046FAE7012203681B68B6
:100CB0001A71036842681B6812785A7103681A68CF
:100CC000022393710023D371026812681372537266
:100CD000062283681A7070472DE9F04F00240E46F3
:100CE000C1B004A908AD9146CDE90444CDE906445C
:100CF000CDE90844CDE90A44CDE90C44CDE90E44E0
:100D0000FFF799FF29463046FFF795FFAC222146B1
:100D100015A8149404F035FB14A910238A46CDE9D4
:100D20001044CDE9124404AA12F8010B013B13F060
:100D3000FF0301F8010BF7D10393012210239A4816
:100D40009A4F17AC03AEB446A64604211EF8018B99
:100D5000013911F0FF010CF8018BF7D119071CD1F3
:100D60009DF80CC09DF80D1010F80CC09DF80FE018
:100D70009DF80E80415C8DF80FC017F802C010F886
:100D8000088010F80EE081EA0C0101328DF80D8028
:100D90008DF80EE08DF80C10D2B203F1040E1FFA9C
:100DA0008EFE0DF5807C9C4416F8011B1CF8C08C4F
:100DB00001339BB281EA080173450CF8B01CF0D1F5
:100DC000B02B04F10404BDD110AC95E80F0084E809
:100DD0000F00524621460020FFF7AFFD4FF00108FB
:100DE00000230022E11808786F4D0132285C042AA4
:100DF00001F8040BF7D10133042BF2D19DF8452003
:100E00009DF841308DF841209DF8492026468DF807
:100E100045209DF84D208DF84D308DF849209DF8E6
:100E20004A209DF842308DF842209DF84E208DF8E2
:100E30004A309DF846308DF846209DF84F208DF8B9
:100E40004E309DF843308DF843209DF84B208DF8AF
:100E50004F209DF847208DF8473000238DF84B2018
:100E60000193337896F801E096F802C0F77883EAA8
:100E70000E058CEA070185EA010080EA450BED09C1
:100E80006A00154483EA0B0B05EBC5058BEA0505E3
:100E900035708EEA0C0580EA450BED098EEA0B0EE3
:100EA0004FEA450B5D4405EBC5058EEA05057570F7
:100EB00080EA4105C9098CEA050C4D007B402944B4
:100EC00001EBC10180EA4300DB098CEA010C590007
:100ED0000B44474003EBC3037B40F370019B86F850
:100EE00002C00133042B019306F10406B9D1404638
:100EF00008F10108524621465FFA88F8FFF71DFD08
:100F0000B8F10A0F7FF46CAF002327480022E118E4
:100F10000D780132455D042A01F8045BF8D10133F4
:100F2000042BF3D19DF845209DF841308DF84120E8
:100F30009DF8492021468DF845209DF84D208DF8DB
:100F40004D308DF849209DF84A209DF842308DF8AB
:100F500042209DF84E208DF84A309DF846308DF89D
:100F600046209DF84F208DF84E309DF843308DF887
:100F700043209DF84B200CAD8DF84F209DF8472065
:100F80000A208DF84B2052468DF84730FFF7D5FCEC
:100F900094E80F0085E80F0028464946FFF74BFE0E
:100FA000012041B0BDE8F08F7D590000725900006A
:100FB0002DE9F04F9A46002391B0CDE90033CDE9F9
:100FC0000233CDE90833CDE90A33492315460746F4
:100FD00088460A469DF868B0DDF86C908DF81030B0
:100FE00001F108060DF11103144603CCB442186058
:100FF0005960224603F10803F6D120686E46186056
:10100000227900241A71304608AA04A98DF81E40DE
:101010008DF81FB0FFF71DFD3246384608A9FFF7CF
:101020005BFE00285CD0102221460DEB020004F08C
:10103000A8F94FF48073304608AA04A925F01C05CE
:10104000ADF810308DF81250FFF703FD32463846E8
:1010500008A9FFF741FE002842D0A3451FD910225E
:10106000ABEB0405EDB200210DEB020004F089F9B1
:10107000102D28BF10250AEB04012A4604A804F00D
:1010800073F9304608AA04A9FFF7E3FC3246384654
:1010900008A9FFF721FE18B32C44E4B2DDE70021D4
:1010A000404604AACDE90C11CDE90E11FFF74BFD26
:1010B00038460CAA04A9FFF70FFE88B16C4609F167
:1010C000FF320CAB09F1030914F8011B13F8015BA3
:1010D000694002F8011F4A45F6D111B0BDE8F08F12
:1010E0000020FAE7F0B5002405468DB008469DF8CB
:1010F0004810CDE904448DF800109DF85010CDE95A
:1011000006448DF801101168CDE90844CDF80210AD
:1011100091889279ADF806108DF808201A68694612
:10112000CDF809209A889B79ADF80D2008AACDE961
:101130000A44139E159F8DF80F30FFF78AFC08AA0A
:1011400011462846FFF7C8FDA8B1BB883868ADF83E
:101150001430336808AACDF81630B388049004A977
:101160001046ADF81A300794FFF773FC2846169A1C
:1011700008A9FFF7B1FD0DB0F0BD2DE9F04F8FB01C
:101180009DF868408246032CDDF86480DDF86CB081
:1011900003D9043CE4B21B2C01D900205FE00027F6
:1011A0004FF001093D4603F07F038DF80C300B68CA
:1011B0000292CDF80D304B680AAECDF81130BC422A
:1011C0002FD93246494602A8CDE90655CDE9085542
:1011D000CDE90A55CDE90C55FFF7B5FC314650462F
:1011E00006AAFFF779FD002839D0E31BDBB2102BEC
:1011F00028BF10233A4606A9D01BC0B2834209D9A2
:1012000018F802C011F8010B80EA0C000BF802007C
:101210000132F1E71F4409F10109FFB21FFA89F910
:10122000CDE75B465046CDE900469DF8602002A917
:101230000A95FFF7BDFE0028AFD004230022A0448A
:1012400016F8011B18F8015B013B694013F0FF031E
:1012500042EA0102F4D1002A9FD11C9B1C700FB0FE
:10126000BDE8F08F0378022B05D840781F288CBF8B
:10127000002001207047002070470000174B10B578
:10128000D3F80C44C4F30042E40301D5012010BD9F
:10129000C3F80021C3F81021C3F8182101221A60F5
:1012A0000028F3D00E4A002908BF1146D3F80C24B9
:1012B000D203EBD4D3F80021002AE7D1D3F81001F0
:1012C0000028E3D1D3F818210139002ADFD1002901
:1012D000ECD1D3F80C04C0F30040D8E700E0105084
:1012E00040420F00F8B505460F461446FFF7BAFF17
:1012F000F0B12B78022B1CD8104A52F82330D3B10E
:1013000001266A7803F1800505EB820596402A687C
:10131000012F22F00F024FEA840408BF42F00302BB
:1013200004F00C0444EA02040CBF5E619E612C6070
:10133000F8BD0020FCE71846FAE700BFF0580000AF
:1013400038B504460D46FFF78DFF78B12378022BA0
:101350000DD8094A52F823305BB101226178002D83
:1013600002FA01F214BF042108215A5038BD0020AE
:10137000FCE71846FAE700BFF0580000012810B556
:10138000044603D002280CBF0220002003F036FCE4
:10139000014B01201C7010BDEC05002010B5C0E908
:1013A0000012836010BD012918BF012203680CBF21
:1013B00019635A6370470000F8B500251F270446DB
:1013C00027267B4BC0E9001283603A462946057305
:1013D000C0F80D50A0F81150133003F0D2FF3A4678
:1013E0002946656304F1380003F0CBFF32462946F5
:1013F000A56504F15C0003F0C4FF3246FF262946D0
:1014000004F1840003F0BDFF294640F2011204F10B
:10141000AC0003F0B6FF3246294604F5D87003F05D
:10142000B0FF1723A4F8E2324FF001133246102622
:10143000C4F8E4322946C4E9AE55C4E9B355C4E959
:10144000B55584F8AF52C4F8B052A4F8B45284F839
:10145000B652C4F8C052A4F8C452C4F8C65284F8B4
:10146000CA5284F8CB52C4F8DC5284F8E05284F8B3
:10147000E85204F2E92003F084FF32462946C4F81A
:101480000854C4F80F5484F8E853A4F8EA53C4F895
:10149000EC53A4F8F05384F8F253A4F8F453C4F8CE
:1014A000F65384F8FA5384F8FB53C4F8FC53C4F899
:1014B0000054A4F80454A4F80654C4F80B54C4F817
:1014C000125404F2164003F05CFF3246294604F23F
:1014D000264003F056FF3246294604F2364003F018
:1014E00050FF3246294604F2464003F04AFF0023EB
:1014F000002204F58C61A4F85654C4F8585484F8BA
:101500005C54C1E9002304F58D61C1E9002304F5B1
:101510008E603246294603F034FF3A462946C4F825
:101520008054C4F88454A4F8885404F28A4003F028
:1015300028FF29462C22C4F8AC54C4F8B054C4F88F
:10154000B454C4F8B85404F2BC4003F01AFF324655
:101550002946A4F8E85484F8EA54C4F8EC54C4F8D2
:10156000F054C4F8F45404F59F6003F00AFF4FF4FC
:1015700080133A46C4F810352946C4F80855C4F813
:101580000C5584F8145504F2155003F0FAFE094B7B
:101590002046C4F838354FF0FA73C4F83C3564235C
:1015A00084F83455A4F8365584F84035F8BD00BFAA
:1015B000000102011800280070B506460C460846D6
:1015C00071B1FEF73DFF1F2805460AD828B1024633
:1015D000214606F2155003F0C7FE012086F8345567
:1015E00070BD0020FCE76429034613D890F840251D
:1015F0008A4201D10120704790F8AF2280F840154F
:10160000002AF7D090F8FF030028F3D0012283F8D6
:101610000024704700207047426B10B5911D2529AA
:101620001FD8837AC47A03F00F030CB143F0200370
:10163000447A80F85D10012C08BF43F0400380F825
:101640005C30034653F80D1FC0F85E109B88A0F86D
:10165000623022B100F11301643003F085FE0120F5
:1016600000E0002010BD0F2902D88172FFF7D4BF1F
:10167000002070471F2A38B5044615460AD81AB10B
:1016800041B1133003F070FE20466563BDE8384079
:10169000FFF7C2BF002038BDF0B5074614460E461E
:1016A00089B019B90024204609B0F0BD3AB14FF411
:1016B0008173ADF80030062303248DF802303046E4
:1016C000FEF7BEFEC4F11F03821C9A4205468ABF84
:1016D00008220922C4F11D0508AB2344691C03F844
:1016E000201C023403F81F2C35B10DEB04002A46F0
:1016F000314603F039FE2C44224669463846FFF74E
:10170000B9FF04460028CDD097F83435002BCAD154
:1017100031463846FFF750FFC5E7826D08B5931D87
:10172000252B18D8417A80F88530012914BF04216F
:101730004421034680F8841053F80D1FC0F886102A
:101740009B88A0F88A3022B100F138018C3003F078
:101750000BFE012000E0002008BD10B50446A1B139
:101760000B68012AC0F80D308B884272A0F8113046
:1017700002BF837C63F03F038374FFF74DFF20B10A
:101780002046BDE81040FFF7C8BF002010BD4368E9
:1017900013B593B1D3F8A443D3F8A8230094ADF8BC
:1017A0000420D3F8A02331B902F001026946FFF703
:1017B000D4FF02B010BD0122F8E71846F9E71F2A4E
:1017C00038B5044615460AD81AB141B1383003F08D
:1017D000CBFD2046A565BDE83840FFF79EBF002041
:1017E00038BD70B505460C46084688B0D9B1FEF73D
:1017F00027FE861C1F2E024617D940F61E0304F151
:101800001C02ADF800300DF1020354F8041B9442A1
:1018100043F8041BF9D11F2622781A703246694614
:101820002846FFF7CCFF08B070BD431C8DF8003090
:10183000092321460DF102008DF8013003F094FDDB
:10184000ECE790F8AF027047034690F8AF0238B16A
:1018500093F8570420B193F8580408B193F8590449
:101860007047034659B390F8AF0248B3D3F8B0229B
:101870000A60B3F8B4228A8093F8B6228A71D3F84A
:10188000B8228A60D3F8BC22CA60B3F8C0220A82A8
:10189000B3F8C2224A82B3F8C4228A82D3F8C6229D
:1018A000C1F8162093F8CA228A7693F8CB22CA761A
:1018B00093F8CC220A7793F8D0324B7770470846DA
:1018C0007047C0F8EC14C0F8F02470472DE9F041DF
:1018D00005460C4616461F4688B0002B78D04FF0C0
:1018E00000081B22414601A8CDF8008003F049FD05
:1018F000601E12286CD8DFE800F00A101835373A5D
:101900003C4447494D6B6B6B6B595C5E64004FF414
:10191000C053ADF80030022410E040F202330093CF
:101920002A2305248DF8043008E095F834452CB1BD
:101930002246684605F2155103F016FDB44249D31C
:101940009DF83820A41BE4B2944228BF14462CB161
:10195000224638460DEB060103F006FD204608B08E
:10196000BDE8F0811C4BDAE7B5F83635D1E71B4B03
:10197000D5E7D5F8383508240093D5F83C350193E0
:10198000DCE741F60103C4E7154BC8E7154B042417
:101990000093D3E795F8FC33002B14BF02230023F8
:1019A0008DF8003000238DF80130B4E741F60F03C5
:1019B000AFE70D4BB3E795F8403501248DF80030C3
:1019C000BCE795F8FF338DF801808DF80030A2E771
:1019D000FF24C3E7FE24C1E702050001020700045B
:1019E000200A00050100FFFF121200192DE9F04F37
:1019F00097B0804614461D460F46209E002900F0F1
:101A00000F84002B00F00E84002E00F00D84002ABD
:101A100059D0B0F8E202002800F06A831728034684
:101A200028BF172302930023012888BF029A087851
:101A300083BF02F1FF32D2B2059205931E28CDE991
:101A40000988338023D8012824D9831E1C2B21D850
:101A5000DFE813F0250020003D0020008300200077
:101A60003A012000380220005D0220008802200098
:101A7000D70020008D03200020002000D402200089
:101A80003D03200020002000200020008603522873
:101A900000F0A4832B4606220021009606E0022CCB
:101AA00007D82B460422002102200096FFF7EAF80F
:101AB0001EE317220323A8F8E2226A7000222B708B
:101AC000AA7033800124204617B0BDE8F08F042CA3
:101AD00005D82B460422002100960420E6E78B78E7
:101AE0004C7854EA032406D00B7991F8038048EA35
:101AF0000328444504D92B46012200962146ECE7F1
:101B000005232B70012300226B70029B9146A3F1E9
:101B1000020A0223B94FCAF38F0A39888C420FD8C0
:101B200088450DD3924512D9E818FEF701FF981C9D
:101B300079882844FEF7FCFE043301329BB292B24E
:101B400009F10109B9F10F0F07F10407E5D1002AE6
:101B5000B7D12B460A220096D0E7082C05D82B4691
:101B60000422002100960620A0E78B7891F80180DE
:101B700058EA032806D00B7991F8039049EA032923
:101B8000C84504D92B46012200964146EBE78A79E5
:101B90004B7943EA0223B3F5205F01D1092C03D02E
:101BA0002B460A220096F0E70B7ACF79002447EA09
:101BB000032707232B70029B914A03F1FF3A01236D
:101BC000CAF38F0A02F1120B9188B94212D111881F
:101BD00088450FD889450DD3A2450ED9E818FEF7E0
:101BE000A7FE981C51882844FEF7A2FE0134043356
:101BF0009BB2A4B206325A45E6D1002C7FF461AF05
:101C0000CEE7062C05D82B46042200210096102092
:101C10004CE78B7891F8018058EA032806D00B79BD
:101C200091F8039049EA0329C84504D92B460122BB
:101C300000964146EBE7601F82B2022A05D0102AC7
:101C40002B4618BF04220096F3E789797B7943EA93
:101C50000123B3F5205F03D02B4610220096E8E75E
:101C600011232B70062302996B70A1F1020ABAFBB3
:101C7000F3FA00239B46624F1FFA8AFA3988884597
:101C800014D8894512D39A4517D9A818FEF750FEE3
:101C9000901C79882844FEF74BFE101DB988284413
:101CA000FEF746FE0632013392B29BB20BF1010BF6
:101CB000BBF1030F07F10607E0D11BB92B460A223F
:101CC0000096B6E73280FDE6062C05D82B460422A6
:101CD000002100960820E9E68B7891F8019059EAF6
:101CE000032906D00A79CB7843EA02239945039366
:101CF00004D92B46012200964946EBE78A794B79B5
:101D000043EA022309222A7042F60302934233D1A6
:101D100007220027029B0224023BB3FBF2F3B846E2
:101D20006A70384A9BB21188894517D8039888424F
:101D300014D3BB4219D92819FEF7FAFD917801375F
:101D40008170E01C91882844FEF7F2FD601DD18867
:101D50002844FEF7EDFD0734A4B2BFB208F1010834
:101D6000B8F1050F02F10802DDD1002F40F0AD817E
:101D70002B460A220096BFE7B3F5205F24D1002747
:101D8000042302243A466B70029BA3F102081C4B09
:101D9000C8F38F081988894510D8039888420DD355
:101DA000B845E2D92819FEF7C3FDA01C998828443C
:101DB000FEF7BEFD04340137A4B2BFB20132032ADC
:101DC00003F10603E6D1D0E70022B3F5285FCDE9A1
:101DD0000B220D9205D103234FF0010AADF82C30F0
:101DE00020E042F60122934201D10523F4E742F6B6
:101DF0000422934208D10723EEE700BFFC580000FD
:101E0000605900003859000042F60522934201D182
:101E10000A23E1E742F60212934242D14FF0020A4E
:101E2000B44B0B934FF0000B02245F46CDF818B073
:101E30000BAB33F81B30994504933CD8DDE90332F2
:101E4000934238D300231B2219460FA80E9303F0A8
:101E500098FA059B00220093404604990EABFFF7C9
:101E600035FDFD28024626D8831CDBB2022B22D08A
:101E70000699E9B96B700693069B0299E3188B42A9
:101E800007933FF772AF28190499FEF751FDA01C84
:101E90000EA9284403F068FA079B01379CB2BFB231
:101EA00009E042F6192293427FF462AF122393E7CE
:101EB00006998B42E0D00BF1010B5FFA8BF39A4548
:101EC000B6D852E7022C05D82B46042200210096F2
:101ED0000A20EBE589787C7854EA012404D12B466A
:101EE000012200962146F3E72B460B2203F8012B33
:101EF000059A2146009240460022FFF7E7FCFF28A2
:101F0000EDD0FE282BD12B4607220096EAE7042CC1
:101F100005D82B460422002100960C20C6E58978BE
:101F20007C7854EA012404D12B46012200962146F4
:101F3000F3E72B460D203979FA7803F8010B059861
:101F400042EA0122009021464046FFF7BFFCFF28ED
:101F5000EAD0FE2803D12B4607220096E7E701309E
:101F60003080AFE5042C02D914F0010904D12B46CE
:101F700004220096002124E00F234FF0000A601E87
:101F80002B70C0F34F04B97897F801B05BEA012BCE
:101F900003D12B4601220096ECE7029B4B4523D947
:101FA000A3EB0903DBB2009300225946404605EB40
:101FB0000903FFF78BFCFF2805D12B460122009671
:101FC00059460E2072E5FE2803D12B4607220096C3
:101FD000F6E70AF1010A1FFA8AF381449C421FFACC
:101FE00089F907F10207CED8B9F1010F03D12B46C9
:101FF0000A220096BEE7A6F8009063E5042C05D8F7
:102000002B4604220021009616204FE58B78497854
:1020100041EA03210B2905D0132903D02B460322C3
:102020000096F1E73B7997F8039049EA0329B9F163
:10203000010F03D92B4607220096E5E7631F1FFA1D
:1020400083FA19FA83F3022B03DD2B460D22009647
:10205000DAE798F8013413BB09A8FEF71DFD012348
:10206000A8F8021488F8013400224FF0010B09F29D
:10207000044007F1040C404493B29A4517D91CF868
:10208000013F00F8013B98F806E409EB02030BFA64
:1020900003F343EA0E0388F806340132ECE7B8F89C
:1020A00002348B42E0D02B4609220096ACE7029B1B
:1020B0009C4203D92B4604220096A5E722463946C6
:1020C000284603F051F917232B703480FAE4022CD0
:1020D00005D02B460422002100961820E6E44B7818
:1020E00053B909A8FEF7D8FC192301202B703080C2
:1020F0000446E8E40B001300012BEAD198F8013400
:10210000002BF1D0B8F802440B2C09D0132C07D0C7
:1021100009A8FEF7C1FC2B46032200962146DCE706
:1021200098F8067407F00307032F06D009A8FEF7F6
:10213000B3FC2B460D220096F0E798F8052498F89A
:102140000434214643EA02220AA8FEF7B4FC002820
:10215000C7D109A8FEF7A0FC2B463A460096DDE75A
:10216000012C04BF002388F8FE330020BFE7022CB7
:1021700005D82B46042200210096122096E4897887
:1021800097F8019049EA0129B9F10B0F02D0B9F192
:10219000130F10D1052C04D02B460D220096494672
:1021A000EBE73A79FB78494643EA02220AA8FEF7B0
:1021B00082FC044618B92B4603220096EFE798F8F4
:1021C000013433B1B8F802344B4502D109A8FEF707
:1021D00063FC13232B700123338074E4042CC4D9D3
:1021E00089787D7845EA01250B2D01D0132DBCD1CE
:1021F000052CBAD13A79FB78294643EA02220AA88B
:10220000FEF759FC0028B0D098F80134002BACD070
:10221000B8F80234AB42A8D109A8FEF73DFCA4E708
:102220000C4650E41C464EE434464CE4F0B587B00E
:102230000C9C019311B9002007B0F0BD002BFAD01F
:10224000002CF8D0032AF6D9CD78887840EA05200A
:102250000528F0D14E780D78101F82B245EA062588
:10226000AA4228BF2A46032AE5D9CF7988790DF1F9
:10227000040C40EA07200027CDF80CC00DF10A0C31
:10228000CDF810C00DF10B0C4D79CDF814C000F154
:10229000040C94450E798DF80A508DF80B700ED908
:1022A000012204211A711A7217225D719971DF716E
:1022B0005F729A72DF7208238DF80B300CE0152ED6
:1022C00040D82D4AF240D207B5D4122E22D1082888
:1022D00014D003A8FEF7E9FC9DF80B101729AAD823
:1022E0000198FEF725FB0522019B01209A70002230
:1022F000DA709DF80B30043323709DE713221A71B6
:10230000022201219A7100225D71DA7119725A72EA
:102310000623D1E7142EDCD10A28DAD117211522A1
:1023200099721A711973002202215D719871DA7124
:102330001A725A72DA725A739A73DA7319745A7477
:102340000E23B9E7162EC4D10428C2D10122487A3F
:10235000097A1A7106225D719A71022500221D7296
:10236000DA715A729A72DA7241EA002103F10C00B2
:10237000FEF7DEFA0A239FE702002800F0B585B0D9
:102380001C460A9D51B14BB145B1032A06D9CE78FE
:102390008B7843EA0623042B1EB201D0002226E0EC
:1023A00091F801C00F78131F47EA0C279AB2BA427E
:1023B00028BF3A46002AF1D000270DF10E03009302
:1023C0000431231DADF80E70FFF710FB0246002804
:1023D000E4D0BDF80E104B1E162BDFD82046FEF7BA
:1023E000A7FA9DF80E30A6700433E7702B701046E4
:1023F00005B0F0BD70B5002510260446C0F808549D
:10240000C0F80F543246294680F80754C0F80B54E0
:10241000C0F8125400F2164002F0B3FF32462946CB
:1024200004F2264002F0ADFF3246294604F236405F
:1024300002F0A7FF3246294604F2464002F0A1FF0F
:102440003246294684F85654C4F8F45404F59F6083
:1024500002F097FFC4F80855C4F80C55A4F81055BD
:1024600084F8126584F8EA5470BD38B5002200255E
:102470000023044600F58C6180F85754C0F8585486
:1024800080F85C54C1E9002300F58D61C1E90023A7
:1024900000F58E602946102202F073FF2946C4F829
:1024A0008054C4F88454A4F8885404F28A401F224B
:1024B000BDE8384002F065BF10B50446FFF79AFF4B
:1024C0002046BDE81040FFF7D0BF000010B50C4615
:1024D00091B1D0F8EC342BB1D0F8F0142046BDE81F
:1024E000104018470549064802F09BFD2146BDE80B
:1024F0001040034802F09EBD10BD00BFD65600003C
:10250000F005002037B5044600680D46FFF7D4FFFC
:102510000523206806498DF804308DF80550FFF733
:10252000D5FF0222606801A9FEF7F1FA03B030BDC1
:10253000DD560000112208B503680A491B681A70AD
:10254000036842681B6812785A70062203681B6889
:102550009A70032283681B681A70C068FFF7B6FF81
:10256000012008BDF0560000112208B503680A4991
:102570001B681A70036842681B6812785A7023221D
:1025800003681B689A70032283681B681A70C0680E
:10259000FFF79CFF012008BD0D570000112208B570
:1025A00003680A491B681A70036842681B6812783E
:1025B0005A700C2203681B689A70032283681B6898
:1025C0001A70C068FFF782FF012008BD2B5700007A
:1025D000112208B503680A491B681A70036842682B
:1025E0001B6812785A701A2203681B689A700322BB
:1025F00083681B681A70C068FFF768FF012008BD78
:1026000048570000112208B503680A491B681A7070
:10261000036842681B6812785A70202203681B689E
:102620009A70032283681B681A70C068FFF74EFF18
:10263000012008BD66570000F0B590F8E914064681
:102640008DB019B196F8E8040DB0F0BD2C2201A8A8
:1026500002F097FED6F8AC3406F2BC47F3B9294C29
:10266000294B22689A4241D16268284B9A423DD157
:10267000FEF7ECFAA368984238D104F10C00FEF79B
:10268000D1F9002832D001AD0C340FCC0FC50FCCDE
:102690000FC594E8070085E807000AE0D6F8B814EB
:1026A00001A898470028DAD001A8FEF7BBF9002856
:1026B000D5D0012301A886F8E934FEF7B3F9C0B1FB
:1026C0003A4601AB0BAD1C4603CCAC4210605160E6
:1026D000234602F10802F6D1012320680C4910605C
:1026E000304686F8E834FFF7F1FEABE7012386F8C1
:1026F000E9342C220021384602F043FE002386F8FC
:10270000E8349FE770060020424F4E4401002C0041
:102710007A570000002370B580F8EA3490F8E93465
:1027200004460BB9FFF788FF94F8E854002D56D003
:10273000062204F52C7104F2BC4002F007FE0028CA
:102740004FD194F8C23494F8B62203F001039A42B0
:1027500047D1062204F10D0104F2C34002F0F6FD58
:1027600000283ED1627A94F8C934511E4A424A4147
:1027700003F001039A4236D104F2CA431A4604F226
:10278000464004F2DA4152F8046B8A4240F8046B86
:10279000F9D1012203F1100084F8562404F59F6258
:1027A00053F8046B834242F8046BF9D10122A4F878
:1027B000F6240B68C4F808354B68A4F8F424C4F870
:1027C0000C35B4F8E23484F8EA24A4F8103594F80F
:1027D000E434D91F092988BF102384F8123528460C
:1027E00070BD0025FBE70546F9E700002DE9F04F35
:1027F000077A85B004469DF838B00F9E27B90027A8
:10280000384605B0BDE8F08F00680028F7D00029F1
:10281000F5D0212AF3D90A6801F10C00C4F8B022DE
:102820008A8884F8B632A4F8B422FEF77FF8C4F898
:10283000B8028B7C4A7C1B0443EA02230A7C824652
:102840001343C4F8BC32CB7D8D7DCA7C45EA032599
:1028500091F8148091F81590A4F8C052487E0B7E30
:10286000039243EA0023A4F8C232C87E8B7E063D61
:1028700043EA00230846A4F8C43250F81CCF029360
:10288000C4F8C6C20079ADB200F01F0084F8CA02D5
:1028900091F82100400984F8D002E07A91F82110E3
:1028A000002808BF4FF0000B01F01F018AEA1A4010
:1028B00084F8CC12019184F8CDB2A4F8CE0204F2CF
:1028C000C620FEF7D6F840F67A4C654584F8CB0270
:1028D00095D8029B092B92D9012890D901990539E5
:1028E0000B298CD8414B9A4589D00023039A84F850
:1028F000D132A4F8D232C4F8D432002A72D040F2D5
:10290000E2435A43082384F8E03217230025A4F851
:10291000E2324FF001132946C4F8DC22C4F8E43255
:10292000FF2284F8E85204F2E92002F02AFD204652
:1029300084F8E853A4F8EA53C4F8EC53A4F8F0532D
:1029400084F8F253A4F8F453C4F8F65384F8FA5315
:1029500084F8FB53C4F8FC53C4F80054A4F804549E
:1029600084F80654FFF7A8FD2046FFF7D3FE18B100
:1029700020461F49FFF7AAFDFF22002104F5D87069
:1029800002F0FFFCD4F8B82223681202C3F82C2E00
:10299000D3F8341E94F8BB2221F0FF010A43C3F898
:1029A000342ED4F8BC2222F07F42C3F84C2E0022F1
:1029B000C3F83C2E0122C3F8402E16B902F02AFCBF
:1029C000064640F2E240012348EA092808FB0000DD
:1029D000064408492046C4F8D86284F8AF32FFF7AD
:1029E00075FD0DE740F2E2428CE700BFD6BE898E4E
:1029F0008657000092570000F8B5064608460C4678
:102A0000FEF710F8054680B3194F1A4A1A4B07F122
:102A10000C0CC7E900320A4601F1280E6346106823
:102A20005168083203C372459C46F7D1106818609C
:102A3000FEF70CF9D6F8B034B86023B12046D6F8CA
:102A4000B8149847054606F2BC4304F12C0254F82A
:102A5000041B944243F8041BF9D140F201133046A1
:102A60000649A6F8E834FFF731FD2846F8BD00BF57
:102A70007006002001002C00424F4E449C5700007D
:102A80002DE9F04FA7B004460D46099309B900207F
:102A900088E0002BFBD0309B002BF8D0032AF6D91E
:102AA000C978AB7843EA0123062BF0D12B786E78F6
:102AB000111F43EA06228BB29A4228BF1A46002A07
:102AC000E5D02B7909A90B910BAE30A9052BCDE9E7
:102AD0000C100E9606D1FFF7EFFCB7492046FFF722
:102AE000F5FCD4E7013B0A2B00F2D881DFE813F0B4
:102AF0000B00CF015D00B100D6013D016E01D60192
:102B0000D601D601D401072A01D00A2102E0AB790F
:102B100023B102210DA8FFF7F5FC43E02F7AFB1F3C
:102B2000092B01D90621F5E7FFF7C6FC2B4653F820
:102B3000042FA249C4F808249A882046A4F80C243B
:102B40009B7984F80E34022384F80F340323A4F80D
:102B50001034EB7984F8137403F00303002B14BFD3
:102B60000122002284F8122484F8F42418BF6B7A1E
:102B70004FF0000218BF03F0010384F8143403F08F
:102B8000010384F8F534012384F8152484F81275C0
:102B900084F80734FFF79AFC072204F20F4130460D
:102BA000FDF7B5FF27B0BDE8F08F112AADD190F841
:102BB0000734012B01D00821ACE76B1D00F216424F
:102BC000153553F8041BAB4242F8041BF9D102F04F
:102BD00021FB0025D4F8B832B4F8D42204F23647E9
:102BE00083EA0242424010213846FDF705FF29469C
:102BF0000D221CA81B9502F0C4FB0DF16D0304937C
:102C000004F10D030393637ACDE91755CDE9195506
:102C10005D1E6B426B41029304F52C73019394F893
:102C2000B6323946009304F5816204F20F4317A8C7
:102C3000FEF758FA0028BED003238DF86C3002232B
:102C40005F49204684F80734FFF740FC11221BA996
:102C5000A5E7112A7FF459AF90F80734022BAAD1C7
:102C600000F2264632466B1D153553F8041BAB4265
:102C700042F8041BF9D1002394F8B622677A069231
:102C8000781E06994742474104F52C7A04F10D0B52
:102C90000DF14C0804F58162CDE90F33CDE9113314
:102CA000CDE91333CDE91533CDE91733CDE9193328
:102CB000009104F20F433146CDE903B8CDE901A7F5
:102CC0000FA8CDE90723FEF70DFADDE90723002859
:102CD0003FF471AF069904F236450DF15C0900919D
:102CE000CDE903B92946CDE901A70FA8FEF7FAF906
:102CF00000283FF460AF1022404604F2164102F073
:102D000025FB28B910224946404602F01FFB08B9AE
:102D10000421FFE6306871681BAB03C3286869684B
:102D20001DAB04F2464603C332461BA90FA8FDF7AC
:102D3000D3FF00283FF43FAF012384F85634042327
:102D40008DF86C300DF16D0355F8042BB54243F846
:102D5000042BF9D1032320461A4984F80734FFF7DE
:102D6000B5FB11221BA90BA81AE7112A7FF4CDAEDF
:102D700090F8F434002B3FF48AAE90F8F534002B31
:102D80003FF485AE90F85734002B3FF480AE90F8B6
:102D90005834002B3FF47BAE6B1D00F59F62153558
:102DA00053F8041BAB4242F8041BF9D140F2011363
:102DB0000549A4F8F63491E6A7570000BD57000076
:102DC000D4570000E3570000F15700000B2A7FF4AE
:102DD0009CAE90F8F434002B3FF459AE90F8F634E2
:102DE000002B3FF454AE90F8F734002B3FF44FAE75
:102DF000AB796A7900F5A16642EA0322A0F81025B2
:102E000055F8073FC0F808356B68C0F80C3500234B
:102E100080F8F734ADF895308DF89730B4F8B432C7
:102E2000D0F8B002ADF8703094F8B6321B908DF83F
:102E30007230234653F80D1F9B88CDF87310ADF800
:102E40007730637A591E4B424B418DF879300DF142
:102E50007A0104F59F6353F8040BB34241F8040B65
:102E6000F9D11968ADF89220CDF88A10596894F814
:102E70001235CDF88E10DA1F092A88BF10231BA93E
:102E800020468DF89430FFF7B7FD054926E6072A5E
:102E90007FF43BAE07213DE6022AF9E7052139E63A
:102EA0000158000070B4A1B1032A12D9CE788C78F1
:102EB00044EA0624042C02D170BCFFF75FBA052C4B
:102EC00002D170BCFFF7B2B9062C02D170BCFFF77B
:102ED000D7BD002070BC70472DE9F041A2B0044678
:102EE00029980E46019308B1002303700EB90025FE
:102EF0000AE1019B002BFAD0289B002BF7D0002A77
:102F0000F5D0317828AD8DF80B10002119700DF136
:102F10000B0301A9CDE90713CDE90B13CDE90F137D
:102F2000CDE9131304939DF80B30CDE90554CDE999
:102F30000954CDE90D54CDE91154CDE9155403914F
:102F4000222B00F2FA8201A151F823F0EF2F0000AA
:102F500079300000D92F0000DD300000EF2E000096
:102F600033320000C1340000EF2E0000193400009D
:102F7000EF2E00001B330000ED3400003934000058
:102F8000033500001934000075330000EF2E0000F7
:102F900021350000A3340000EF2E00005F34000054
:102FA000EF2E00008B340000EF2E0000EF2E00000B
:102FB000EF2E000063330000EF2E0000EF2E000024
:102FC00063330000EF2E000071330000EF2E00008D
:102FD000EF2E0000EF2E0000022A03D003A8FFF717
:102FE00011FB90E0002882D0012303707FE70C2AB8
:102FF000F4D173793279B07942EA0322F379317AE4
:1030000040EA0320737AB0F5FA7F41EA0321F37AAC
:10301000B67A46EA03262DD240F67A45931F9BB234
:10302000AB428CBF0023012340F67647A1F10A058D
:10303000ADB2BD4288BF00230A2700FB02254F43E3
:1030400005EB8505B7EB550FB4F8D45298BF0023B4
:10305000751B2DB2002DC1DD002BBFD00123A4F8BC
:10306000EC23A4F8EE03A4F8F013A4F8EA6384F8C0
:10307000E8333CE70023D7E7082AAFD1737817A8D5
:103080008DF85C30B378B5798DF85D30F378F779E9
:103090008DF85E3033798DF85F30737903F01F035C
:1030A0008DF86030FDF7E5FC0128014696D9B4F8AB
:1030B000D43245EA0722D31A1BB2002B8EDD9DF8CD
:1030C0006030179884F8FA330123C4F8F60384F8C3
:1030D000FB13A4F8F42384F8F23308E7172A7FF4EB
:1030E0007DAF94F857345BB994F85A3443B994F8E7
:1030F0005B342BB994F8583413B994F859343BB174
:1031000013A8FFF731FA0546284622B0BDE8F08142
:1031100094F856341BB90BA8FFF70CFAF3E794F8B0
:10312000EA347BB1B17A737AB4F8E22443EA01233A
:103130009A42F0D1082204F2DA41701C02F006F93A
:103140000028E8D1B046002758F80B0F19ABD8F883
:103150000410CDE9177703C3D6F81330C4F88434CC
:10316000B27A737A43EA02233246A4F8103552F851
:10317000013FC4F808355368C4F80C3502F04AF82A
:10318000D4F8B832B4F8D45283EA054545404046F5
:10319000FDF7CCFB454006F11300FDF7C7FB4540AA
:1031A0002A46082117A8FDF727FCC14A04216A40D6
:1031B00004F59060FDF720FC04F58E6217A904F277
:1031C0004640FDF789FD054600283FF407AF01237F
:1031D00084F857344FF480330022C4F85834002365
:1031E00004F58C6184F85C74C1E9002304F58D61F9
:1031F000C1E9002304F28A401F223946A4F88874EA
:1032000002F0BFF80422019B1A70019A17AB03CB9E
:10321000C2F80100C2F80510D4F88024019BA5492A
:10322000C3F809200D22289B1A702046FFF74EF99B
:103230006AE7012A7FF4D2AE94F85734002B3FF4AA
:103240006AAF94F85834002B7FF45AAF94F859348D
:10325000002B7FF455AF94F85A541DB90FA8FFF70F
:103260009DF950E7A4F85A3494F8F43484F85824BB
:1032700084F85C24002B48D094F85634002B44D0BA
:1032800094F8F634002B40D1ADF885308DF88730B6
:10329000B4F8B432D4F8B002ADF8603094F8B63275
:1032A00017908DF86230234653F80D2F04F25641E3
:1032B0009B88CDF86320ADF86730637A5A1E53427D
:1032C00053418DF869300DF16A0204F2464353F818
:1032D000040B8B4242F8040BF9D1D4F80835204690
:1032E000CDF87A30D4F80C3517A9CDF87E30B4F883
:1032F0001035ADF8823094F81235DA1F092A88BFEC
:1033000010238DF88430FFF777FB0622019B6A4972
:103310001A700122289B1A7087E7012A7FF45EAE9B
:1033200094F85754002D3FF4F6AE94F85A34002B1D
:103330007FF4E6AE94F85B34002B7FF4E1AE94F8B2
:1033400058341BB994F85934002B87D02046FFF726
:103350008CF80B22019B59491A700122289B1A7084
:1033600063E7022A7FF43AAE07A8FFF731F9CAE60D
:10337000242AF7E7182A7FF431AE3279F378B5784A
:103380007078717943EA0223B279F47940EA052032
:1033900041EA0221327A052844EA02242BD9B3F506
:1033A000486F28D8834234BF0025012540F6764077
:1033B000A4F10A0292B282421FD8B1F5FA7F28BF67
:1033C00000250A2001FB0333444303EB8303B4EBE2
:1033D000530F019A13D995B106F1180356F8041B3F
:1033E0009E4242F8041BF9D11022019B1A70182248
:1033F000289B1A7088E60025D8E70025E1E711230D
:1034000013700F22019B5A702022019B9A70032295
:10341000289B01251A7077E6092A7FF4DFAD1F216A
:10342000019B1A70019B59700021019BC3F8021087
:10343000C3F80510289BECE7062A7FF4CFAD0C21DA
:10344000019B012019700D21019B59705921019B8D
:1034500099700021D970019B18715971EAE7092A06
:103460007FF4BCAD15211B250024019B01201970A0
:103470004821019B5D709C70019BD9701871019B64
:103480005D719C71D9711872D4E7032A7FF4A6ADDF
:1034900017210120019B1970019B5870019B9870A6
:1034A000C8E7012A7FF49AAD1321019B1970C1E787
:1034B0004F8BA36B125800002658000040580000A4
:1034C000012A7FF414AD94F85B34002B3FF40FAD68
:1034D00094F85734002B3FF40AAD00251C4984F8BA
:1034E0005B5484F8592484F85C549EE6012A7FF4E6
:1034F000FEAC2046FEF7B9FF20461649FEF7E6FF70
:10350000F5E4022A7FF4F3AC94F85B3423B994F821
:103510005A34002B3FF4EBAC2046FEF7A6FFE6E45E
:10352000032A7FF4E4AC72780A2A3FF6E0AC4FF449
:103530008563D340DB07EFD4D9E40722019B1A70DF
:103540009DF80B20019B5A70289B022261E700BF67
:103550005A5800006E58000038B540F2E245B0F805
:10356000C03204465D430BD101F054FEB4F8D432AE
:1035700000F2E2400133C4F8D802A4F8D43238BDD6
:10358000D0F8D8322B44C0F8D832B0F8D432013356
:10359000A0F8D43201F03EFE0923013B13F0FF03F3
:1035A000EDD0D4F8D822811A0029E8DB2A44C4F8E7
:1035B000D822B4F8D4220132A4F8D422EDE790F84E
:1035C000CD32024670B5CBB3B0F8D43211B90BB1DD
:1035D000591E8BB20325B2F8CE4284EA0301080AD1
:1035E000FDF7DDF90646C8B2FDF7D9F940EA062332
:1035F00003EB0313013DE11815F0FF0589B2EED18D
:1036000025206140B1FBF0F300FB1313C3F3CC049E
:10361000144494F8C642D8B203F0070324FA03F323
:10362000DC0735D492F8CB0290B34143C1F3074194
:1036300002F2C620BDE87040FDF796B990F8CC5272
:1036400049B1252390F8D1022844B0FBF3F403FBE1
:10365000140082F8D102252092F8D1325919B1FB19
:10366000F0F300FB1313D8B202EBE30182F8D102AE
:1036700091F8C61203F0070321FA03F3DB0707D41E
:1036800092F8CB42B0FBF4F104FB1101C9B2CFE7D1
:1036900070BD006890B124290FD80A2994BF8B1CF3
:1036A000CB1C5B0041F40901DBB241F04001C0F8E2
:1036B0000837C0F8401501207047002070470068A7
:1036C00048B149B1D0F8203223B9D0F820350139BA
:1036D0001B07F6D1012070470846704738B50368CC
:1036E00004460025002B3BD0012280F8AF521D4933
:1036F000C3F800541A61FFF7E2FF03232068C0F803
:10370000A420C0F800354FF48473C0F80427C0F833
:10371000203E154BC0F8283E144BC0F82C3ED0F884
:10372000343E23F0FF0343F08E03C0F8343E40F2F2
:103730000313C0F83C5EC0F8402EC0F8443E40F28F
:103740005B63C0F8483E0A4BC0F84C3E9623C0F875
:103750001437084BC0F84035FDF734F9104638BD32
:103760001846FCE7C0D40100FF00030200D6BE8962
:103770005555550065008900006848B149B1D0F839
:103780001C3223B9D0F818320139002BF6D00120B1
:10379000704708467047006868B125290CD0262973
:1037A0000CD11A2341F4090141F04001C0F8083757
:1037B000C0F84015012070470223F3E7502327216A
:1037C000F0E700002DE9F04F04468946984615467B
:1037D00087B05AB10023117053709370D370137176
:1037E00053719371C2F80730A2F80B30237A23B9D2
:1037F0000026304607B0BDE8F08F2368002BF7D0D5
:1038000094F8AF72002FF3D149462046FFF7C3FF6B
:103810000028EDD0264656F8AC0BFDF7D3F840F261
:1038200001123946304601F0ACFD324604F15C032A
:1038300004F1800153F8040B8B4242F8040BF9D1D8
:103840001988204611809B7893702368894AC3F8B1
:10385000D06EC3F80024012210991A60FFF78CFF84
:10386000109B06464FEA530A0AF1010A58B9236829
:10387000514620461A61FFF722FF2068C0F8006415
:10388000FDF7A0F8B5E751462046FFF718FF68B9E5
:10389000236851461A612046FFF711FF024628B9F6
:1038A0002068C0F80024FDF78DF8A1E70022236806
:1038B0004146C3F82022C3F81822C3F81C22C3F8DB
:1038C0002C22C3F830226C4AC3F80024D3F82025F8
:1038D000100708BF0122204608BF5A60FFF74CFFBF
:1038E000024650B901212368204619615146FFF76D
:1038F000E6FE2068C0F80024C2E701F08BFC2368D4
:1039000094F8AC80D3F80C2E4FEA6813039394F824
:10391000AD3004905146204602F001020593FFF7B6
:10392000CEFEC8F3801B064638B901212368204625
:1039300019615146FFF7C3FE064600232068C0F810
:103940000034002E9CD0002A68D0059A02F03F0A6D
:10395000BAF10B0F61D9062204F10D0104F1B40094
:1039600001F0F4FC00230246002856D1637A591E68
:103970004B424B41B3EBD81F50D108F00F08B8F1C0
:10398000030F04F1AE0129D1002D4BD00B68804606
:10399000C5F807308B883146A5F80B30236885F8C9
:1039A00000902BB1D3F8183703F07F035B425BB272
:1039B000AB7185F805B0697085F80380B8F1000F28
:1039C0002ED0E37A13B1039B03F001032B71A37A8A
:1039D0000BB1062B43D159BB0F4640E0B8F1050FA0
:1039E0001CD1A37AD3B9BAF1210F16D92DB10B6826
:1039F000C5F807308B88A5F80B30049B524601931D
:103A0000039B204603F0010300935B46FEF7EEFEA6
:103A1000B046024655B10021C0E71A469046F9E784
:103A20004346D3E72A46A8463146D0E72946CEE7A3
:103A3000AAB92068FCF7C6FF214651F8843B20460E
:103A4000C3F8D01E4FF42021C3F8001401211960DF
:103A50001099FFF734FE07462368C3F8002435B1F8
:103A6000AF70B8F1000F02D00AB9EA702A7120686D
:103A700006E700BF18000E0010000C002DE9F04F03
:103A800089B007460C46924600210D2204A89B46A9
:103A900001F077FC42F22563ADF80C3027238DF856
:103AA0000E30032397F81355B5FBF3F303EB4303F1
:103AB000EB1ADDB27CB108AB2B4413F8143C237035
:103AC00000236370A370E37023716371A371C4F862
:103AD0000730A4F80B304FF000084FF001090D2219
:103AE000002104A801F04DFC032205EB0803B3FB01
:103AF000F2F101EB41015B1A08AAD118129B38467A
:103B0000009311F8141C5B4604AAFFF75BFEB9F1A1
:103B1000000F18BF81469DF813C0FCB1BCF1000F27
:103B20000BD19DF8113043B9B8F1020F26D108F13D
:103B30000108B8F1030FD2D113E0264604AB0DF112
:103B4000180E1A4603CA724530607160134606F1BA
:103B50000806F6D11068306013793371BCF1000F9C
:103B6000E2D003230135B5FBF3F3484603EB4303EF
:103B7000EB1A87F8133509B0BDE8F08FBAF1000FE2
:103B8000D5D0504601F07CFBD1E7000038B5036882
:103B90000446002B47D0244A0025C3F82C2ED3F826
:103BA000342E294622F0FF0242F08E02C3F8342E52
:103BB0001E4A00F2E920C3F84C2E0122C3F83C5EF5
:103BC000C3F8402E172320F8073C4FF0011300F8EC
:103BD000015C40F8053CFF2201F0D3FB204684F84D
:103BE000E853A4F8EA53C4F8EC53A4F8F05384F86B
:103BF000F253A4F8F453C4F8F65384F8FA5384F853
:103C0000FB53C4F8FC53C4F80054A4F8045484F8DB
:103C10000654FEF751FC204684F814552521BDE8D2
:103C20003840FFF7B8BD38BD00D6BE8955555500A0
:103C300070B5067A0446002E4BD003680025002B91
:103C400049D00122C3F800541A61FFF738FD294614
:103C5000FF2284F8AF5204F2E92001F092FB17230F
:103C6000A4F8E2324FF001132046C4F8E43284F89D
:103C7000E85284F8CD52A4F8CE52A4F8D652C4F833
:103C8000DC5284F8E05284F8E853A4F8EA53C4F80C
:103C9000EC53A4F8F05384F8F253A4F8F453C4F8A6
:103CA000F65384F8FA5384F8FB53C4F8FC53C4F871
:103CB0000054A4F8045484F80654FEF7FDFB204693
:103CC000FFF764FF2068FCF77DFE20460349FEF7FE
:103CD000FDFB304670BD1E46FBE700BF825800006A
:103CE0002DE9F04F044616460D46E3B061B1B0F839
:103CF000D42200234A814FF48032C1E90033C1E964
:103D000004230B72CB608B61237A2BB900230B93B6
:103D10000B9863B0BDE8F08F2368002BF6D094F8C1
:103D2000AF32002BF2D0B4F8C03240F2E24703B118
:103D30005F4301F06FFA94F8E032002B00F0B0809E
:103D4000D4F8DC2202F5C872D4F8D832A0EB03090B
:103D5000A9EB02096FEA0909A3F59668A0EB08032D
:103D6000002B4FEAD979C0F29E802046FFF7F4FB82
:103D700094F8E833002B40F0A38094F8F233BBB101
:103D8000B4F8F423B4F8D4329B1A1A0410D494F87B
:103D9000FB33012B09D9D4F8F62384F8CB32C4F8CD
:103DA000C62294F8FA2384F8CA22002384F8F23356
:103DB00049462046FFF703FC024601462046FFF72E
:103DC00068FC0B900028A1D02DB101232B70B4F812
:103DD000D4322A736B81A04658F8AC0BFCF7F2FD85
:103DE00040F201120021404601F0CBFA2068AA4BB4
:103DF000C0F8D08EC0F800340123436094F8E0325C
:103E00005BB1D4F8DC3203F5FA639F4238BF1F463A
:103E10004CF250339F4228BF1F4632463946FCF7CA
:103E2000B1FE760807460136002869D101232068D3
:103E300031460361FCF7D3FE2068C0F80074FCF73C
:103E4000C1FD94F8E03213B1013B84F8E032B4F8DC
:103E5000D622B4F8C012013292B240F2E243A4F882
:103E6000D62200294AD0594342F21073B4F8C40252
:103E70004343994294BFB3FBF1F301239A420AD31F
:103E80000DB101236B7120468449FEF71FFB3146BB
:103E90002046FFF7CDFE20468149FEF717FB37E7A6
:103EA0004FF4B47250E7A8EB0000B0F5B47F3FF6D2
:103EB0002DAF01F0AFF9A0EB08000028F9DB54E7C3
:103EC000B4F8D432B4F8EA239B1A19043FF555AF7D
:103ED00040F67A42B4F8EC33063B9BB2934209D8E1
:103EE000B4F8F033092B82BFD4F8EC23A4F8C43221
:103EF000C4F8C022002384F8E8333EE71946B3E74C
:103F000001F088F9314610902068FCF768FE0B90AC
:103F100030B90123206831460361FCF760FE0B9045
:103F200000232068C0F800340B9B13B9FCF74AFD4E
:103F3000EEE6D0F80C3E03F001025DB10121D0F8AD
:103F40001837697003F07F035B426B7304F1AE03B3
:103F5000AA706B6194F8E03252BB13B1013B84F854
:103F6000E032B4F8D622B4F8C012013292B240F274
:103F7000E243A4F8D622C9B1594342F21073B4F80F
:103F8000C4024343994294BFB3FBF1F301239A4225
:103F90000AD30DB101236B7120464049FEF796FA12
:103FA00031462046FFF744FE2068BFE71946E4E7A4
:103FB0000022A4F8D6227BB1B4F8C00240F2E24756
:103FC00000B1474301F026F994F8E0320744013B81
:103FD000C4F8D87284F8E03294F8AC3094F8ADA00C
:103FE00003F003020892089894F8D322032894F867
:103FF000D212C3F38007C3F3C00C3BD1BAF1000F58
:104000000FD094F8AEE0BEF10A0F33D84FF48560BC
:1040100020FA0EF010F0010F0B9808BF0020079057
:1040200001E0CDF81CA0614526D1BA4204D194F834
:10403000E50208B1079860B181F0010184F8D2125D
:104040000B99BA4218BF82F00102079118BF84F899
:10405000D322002294F857748DF856207FB394F839
:10406000582494F85B144AB994F85A0430B931B919
:10407000002724E00020D2E70021E2E791B108996F
:1040800003290FD1BAF1010F0CD194F8AE30062BF1
:1040900040F09E8400271FE010000C008D580000A7
:1040A000A1580000BAF1030F73D8002A00F0C380B2
:1040B000012373498DF856302046FEF707FA089B16
:1040C000032B09D1BAF1010F06D994F8AE30022BB7
:1040D00002D101238DF856300DF1560210788DB1C2
:1040E000079B68712B71089B85F811A0032BAB739C
:1040F00040F0A380BAF1000F04D00123AB7194F813
:10410000AE30EB7300218DF85710BAF1000F00F0BC
:10411000B28094F8AEC0BCF10A0F00F2AF804FF449
:10412000856323FA0CF313F0010F0B9B08BF0B46BA
:104130000A93079B002B00F06581002840F03B8428
:10414000089B032B40F038840A9B002B00F0378437
:104150000DF15708019220465246CDF8008004F533
:10416000D87304F1AE01FEF7B7FE28B198F800301D
:104170000A90181E18BF01209DF85630002B40F001
:104180004381002800F0808003239DF857B00E93F0
:1041900094E004F58C62D2E90089079A32B958EAB2
:1041A000090203D018F1FF3849F1FF394FF0000B35
:1041B0001722594622A8099321AFC7F800B001F091
:1041C000E0F81AABCDE90373099B8DF868B004F1F0
:1041D000AE0B009342464B46CDE901BA04F590611F
:1041E00004F58E60FCF7C9FF48B994F85874002FA5
:1041F0003FF465AF012323498DF856305CE79DF805
:1042000068A0BAF1000F04D052463946584601F072
:10421000ABF8079B002B3FF42BAFD4F86024D4F805
:104220006434013243F1000303F07F03C4F86024D7
:10423000C4F864341CE7174641E7089B022B7FF45F
:1042400061AFBAF1040F7FF65DAF94F8B11094F846
:10425000B03043EA0123042B7FF454AF94F8AE301E
:1042600094F8AF1053EA01231FBF0123EB7194F8B8
:10427000B2302B7446E7CDF828A05AE70A9158E7E8
:10428000B0580000C158000094F8E832002B00F04C
:10429000B68094F8E63294F8E7B20E93BBF1000FC3
:1042A00006D05A4604F2E92104F5D87001F05CF812
:1042B0000123A4F8E632002384F8E8320E9B84F848
:1042C000E5B284F8E43294F8D23294F8D3229B0019
:1042D000D20002F0080203F0040313430E9A94F88C
:1042E000597402F003021343099384F85C30002FE1
:1042F00000F0AA8094F85774002F00F0A580079B67
:10430000002B40F0A08094F88874002F00F09C806F
:1043100094F8892484F85D202AB104F28A4104F1DA
:104320005E0001F021F82068FCF74CFB224652F8B1
:104330005C3B109FC3F8D02E11924FF420226A37B5
:10434000C3F8002400F066FFC01B0028FADB01233D
:104350002068324640F29E710360FCF713FC00288F
:1043600040F01B810123206831460361FCF737FCD4
:10437000002309930023D4F80090C9F80034099B66
:10438000002B40F0CB8220468849FEF79FF8099F1A
:10439000079B23B19DF85630002B00F02482DDB13D
:1043A000099B85F813B02B720E9BAB74BBF1000F09
:1043B00000F0A28204F5D873AB61099B3BB10E9B60
:1043C000012B0ABFBBFA8BF300235B090993099BFE
:1043D000EB709DF856306B7194F85C249DF8563064
:1043E000002A00F08B82002F00F08882002B40F022
:1043F0008882012284F85C3484F85924D4E5834609
:104400000123C4E6079B0A9394F8E43294F8E5B2DA
:104410000E939DF85630002B3FF455AF002F3FF41C
:1044200052AF43F60253A4F8B031002340F2032206
:10443000A4F85834A4F8883403234FF0020BA4F8EE
:10444000E4220E933FE7079F84F85DB0BBF1000FB5
:1044500000F0C3825A4604F5D87104F15E0000F002
:1044600083FF002F00F0BC82BBF11B0F00F28C8099
:104470004FF000084FF00109474604F28A420F92BC
:10448000D4F86C24D4F8681462F07F028DF85C20B4
:10449000D4F8802404F58E63CDF85D20D4F884240C
:1044A0000C93169104F5D873CDF86120C34539D922
:1044B000494621AA16A8CDE91A77CDE91C77CDE99E
:1044C0002177CDE923771193FCF73DFB0C981AAACD
:1044D00021A9FCF701FC002856D0ABEB0802D2B2B0
:1044E000102A28BF10224FF0000C08F5D870119B3D
:1044F00020445FFA8CF18A420CD90DF1680E10F855
:10450000011B1EF80CE00CF1010C81EA0E0180F891
:10451000D912EEE7904409F101095FFA88F81FFA11
:1045200089F9C3E70DF18408CDE900B8099A0C9820
:1045300016A92197FCF73CFD30B3D8F800300F9A4C
:104540000BF10407FFB242F80B300F993A4684F89A
:104550005D7004F15E0000F007FF012384F88834E9
:10456000079B84F88974002B3FF4DDAED4F86824EF
:10457000D4F86C34013243F1000303F07F03C4F834
:104580006824C4F86C34CEE6002384F85D30A4F8C7
:10459000883401238DF85630C5E631462068FCF793
:1045A0001EFB099000283FF4DDAEE3E6D158000081
:1045B000D3F80C3EDB0740F1F7819DF8843094F886
:1045C000D212C3F3C00E03F00302714510929DF89E
:1045D000858094F8D322C3F3800C0BD194F8E5E2E4
:1045E000BEF1000F01D062450AD0074681F00101FB
:1045F00084F8D21262451CBF82F0010284F8D322F3
:1046000094F85724002A54D094F85A24002A50D001
:10461000109A032A4DD1B8F1030F4AD904F58C62E0
:10462000D2E90012CDE90C124FB90A4307D00C9A17
:1046300012F1FF320C920D9A42F1FF320D920021DD
:1046400017221BA813931A9100F09BFE002116ABB2
:104650000DF16809CDE903930DF186030193139BD6
:104660008DF858100093CDF8088004F5906104F59A
:104670008E60DDE90C23FCF780FDD0B19DF85880F9
:10468000B8F1000F05D0424649460DF1860000F012
:104690006BFE002F00F08881D4F86024D4F86434D5
:1046A000013243F1000303F07F03C4F86024C4F82F
:1046B0006434002F00F078819DF85690B9F1000F16
:1046C00040F07281109B032B40F06E81B8F1000F17
:1046D00000F06A819DF88630052B40F065811AABA9
:1046E00004F5D872019316AB0C9200932046134642
:1046F0000DF1860142468DF858908DF86890FEF7CE
:10470000EBFB8046002860D09DF85870002F00F029
:104710004D81109B1F22494684F8E43284F8E572EB
:10472000A4F8889404F28A4000F02BFE94F8D23268
:1047300094F8D3229B00D20002F0080203F0040395
:10474000134343F003033A4684F85C300C9984F831
:104750005D7004F15E0000F007FE2068FCF732F99E
:104760002368119A129FC3F8D02E4FF420226A3783
:10477000C3F8002400F04EFDC01B0028FADB012323
:104780002068324640F29E710360FCF7FBF9A0B945
:104790000123206831460361FCF721FA4FF000083D
:1047A00000222368C3F800249DF86830002B00F035
:1047B000FD8001238DF85630F8E031462068FCF783
:1047C0000EFA80460028E3D0EAE7B846EEE020681B
:1047D0003146C0F81090FCF702FA23680F9AC3F82C
:1047E0000024E3E0079F0A9B0DF15608002B54D1EB
:1047F000089B032B51D1BAF1000F10D00A9B21AEB8
:104800008DF8843052462046CDE9006804F5D8730F
:1048100004F1AE01FEF760FB08B1327832BB94F8C8
:104820005B24002A65D194F85A34002B62D194F8A5
:10483000FC23002A45D094F8FD23002A41D094F8A7
:10484000FE23002A3DD16D4B6D4984F8FD23C4E958
:104850006C134FF47F43A4F8B831FF2384F8BA31C6
:1048600001230B2284F8FE330223089398F80030CA
:10487000002B7FF494AD002A3FF491AD089B84F89F
:10488000E72284F8E63204F5D87104F2E92000F05A
:104890006BFD012384F8E83281E5089B022BBED131
:1048A000BAF1030FBBD9002321AE8DF884305246F4
:1048B0002046009604F5D87304F1AE01FEF7F2FA33
:1048C000AAE794F8FF23AAB194F8002492B14FF01C
:1048D0000412C4F8B02141F21B22A4F8B42194F8C8
:1048E000402584F8B63184F8B72184F800340822D2
:1048F000BAE700220123B8E75B465DE5002B3FF4F1
:1049000053AB0123A4F8E6320023204684F8E832B2
:1049100084F8AF32FFF73AF9FFF746BB9DF85670BF
:10492000002F7FF43CAD94F85A84B8F1000F49D0C1
:104930000E9B032B46D1BBF10D0F43D194F8B03140
:10494000042B3FD1FD22394622A8219700F019FD02
:1049500048464FF00109FCF735F8206821ABC0F854
:10496000D03E284B3246C0F8003440F6C411C0F89F
:104970000490FCF707F90F9000283FF428AF00F0EF
:1049800049FC314612902068FCF729F928B92068C3
:104990003146C0F81090FCF722F900222368C3F8D2
:1049A000002400287FF404AEDDF83C802068FCF78A
:1049B00009F84746ECE400200A90FFF7DDBB0A98AF
:1049C000FFF7DABB079B002B7FF40CAF099FE6E4EF
:1049D000002A3FF45FABFFF76BBB002F7FF448ADBD
:1049E000079B002B3FF49FAC00211F22A4F88814E2
:1049F00004F28A4000F0C5FC95E400BF1D0A0001E6
:104A00000700040010000C0007283FDC40D00628F7
:104A100040D0052840D0042840D0032840D00228A8
:104A200040D0012840D0002840D0431C40D0811CF9
:104A300040D0C21C40D0031D40D0411D40D0821D3B
:104A400040D0C31D40D010F1080F3FD010F1090F26
:104A50003ED010F10A0F3DD010F10C0F3CDA10F1EE
:104A60000E0F3BDA10F1100F3ADA10F1120F39DAAB
:104A700010F1140F38DA10F11C0F37DA10F1280F8B
:104A8000B4BF4FF488704FF4987070473F20704760
:104A900039207047332070472D20704728207047F9
:104AA000232070471F2070471B2070471820704735
:104AB0001520704713207047112070470F20704752
:104AC0000D2070470B2070470A207047092070475F
:104AD0000820704707207047062070470520704760
:104AE0000420704703207047022070470120704760
:104AF00010B5046844B10846FFF786FFC0F30A000A
:104B0000C4F81007012010BD2046FCE7F7B50026C9
:104B1000304F044680F8AF6280F8136580F8146562
:104B200038780D46FCF72AFC18B90025284603B052
:104B3000F0BD3B7801205A1E53425341264923734E
:104B4000FCF79CFB0028F0D02046FEF7C7FD0028AC
:104B5000EBD029462046FFF7CBFF05460028E4D0DE
:104B60001E4B012120460093ADF80460FCF70FFEB8
:104B700028B1636B5BB12046FCF74EFD0CE00122CF
:104B800069462046FCF7E9FD0028F2D1CDE7012275
:104B900020461349FCF780FD0028C6D0A36D1BB149
:104BA0002046FCF7BAFD03E020460D49FCF719FE4C
:104BB0000028BAD094F834352BB12046FDF73CFDDF
:104BC00001232372B2E720460549FCF7F5FC0028D3
:104BD000F3D1AAE7EC05002060E31600C0541500ED
:104BE000E05800000022034B1A702022024B5A6149
:104BF0009A607047ED05002000040550012803D09D
:104C0000022808D0FFF7EEBF20220B4B18700B4B89
:104C10005A615A6070472021084A074B1870D2F831
:104C20009430916123F4403323F00F0343F00403E5
:104C3000C2F89430704700BFED0500200004055015
:104C4000FFF7D0BF10B504460368DB689847E068FB
:104C500010BD7047704710B5044600F04FFA20466B
:104C600010BD13285AD8DFE800F00A0F13171B1FD6
:104C700023292D3236393D3F43474B4F55510120B3
:104C80000423087013707047012005230870F9E7AA
:104C9000012006230870F5E7012007230870F1E7DB
:104CA00001200A230870EDE701200B230870E9E7D3
:104CB00002230B70082301201370704702230B702E
:104CC0000723F8E7022301200B70107070470223BE
:104CD0000B700423EFE702230B70ECE700230B704B
:104CE0000323E8E70023F3E702230B700A23E2E73C
:104CF00002230B700923DEE702230B700623DAE799
:104D000002230B700023D6E70023E5E701200923E7
:104D10000870B7E7012008230870B3E70020704748
:104D2000054B0844013B04D00268002AFAD0012058
:104D300070471846704700BFA186010037B5047C54
:104D400004B34468F4B1837C0125194000238DF835
:104D50000710C4F86831C4F830310DF10703C4F806
:104D60003C374FF4B471C4F8405720462565FFF72F
:104D7000D7FF4FF4987120466565FFF7D1FF2846AD
:104D800003B030BD2046FBE74368F7B505460E4645
:104D90001446002B00F096800023007A0DF10502E6
:104DA00001A98DF804308DF805308DF806308DF8A6
:104DB0000730FFF756FF002800F08480687A0DF175
:104DC00007020DF10601FFF74CFF00287AD09DF88D
:104DD00004209DF805C0022A08D8434B53F822103E
:104DE00021B1012303FA0CF34B614B609DF80630AF
:104DF0009DF80770022B10D83B4951F8231061B180
:104E00000120B840886101EB8701D1F8800020F0D3
:104E10000F0040F03000C1F88000002152015B011A
:104E20006868D2B20CF01F0CDBB207F01F0742EA31
:104E30000C023B43C0F80015C0F80426C0F80C363D
:104E40004FF0FF33C4F34102032AC0F80836C0F81C
:104E5000103618BF012302F105011CBF8B4003F17E
:104E6000FF3304F030020CBFFF23DBB2202A2BD02B
:104E7000302A2BD14FF4807242F00E02AB746400E2
:104E80001A4B04F0100414439E42C0F86C451FD81E
:104E9000B6F5E13F1FD2B6F5614F1FD2B6F5164FFA
:104EA0001FD21349134BB6F5964F34BF0E461E461C
:104EB0000823C0F82465C0F800354FF0FF33EB60DD
:104EC00001232B7403B0F0BD0022D5E70022D5E703
:104ED0004FF08056ECE74FF0EB76E9E74FF46B06C6
:104EE000E6E74FF41D06E3E7805A00003F420F005B
:104EF0000050270000A04E000622FFF745BF70B506
:104F0000057CF5B144680023ECB101261130C4F8EA
:104F10004C314FF4A671C4F81431C4F80407C4F836
:104F200008672046A662FFF7FBFE05464FF4927124
:104F30002046E662FFF7F4FE1DB94FF0FF33C4F8D8
:104F40008034284670BD2546FBE7C36810B5002BAA
:104F5000044606DAFFF7D3FF20B1637CA27C13403E
:104F6000E360012010BDC36810B5002B044604DBCC
:104F70004FF0FF32C260184610BDFFF7C0FF18B1F6
:104F8000637CA27C1340F6E74FF0FF33F3E70000A9
:104F90000C4B0D4A00215A6041F213221A814FF046
:104FA000FF320A48DA6018609A741982084B186058
:104FB0000848DA605860FF2240F2067019821881B2
:104FC0009A747047F005002000600C50945A00005D
:104FD0000406002000700C50F8B505460C4600266B
:104FE0008F18BC4207D02B6828469B6814F8011B19
:104FF00098470644F5E73046F8BD09B1FFF7ECBF26
:105000000846704738B505460C46084641B1FBF7DF
:1050100017FA214602462846BDE83840FFF7EDBFA3
:1050200038BDFFF7EFBF03689B68184703680A2184
:105030009B68184738B50546FFF7E4FF0446284645
:10504000FFF7F4FF204438BD0023012A98BF0A224D
:1050500070B58AB00C468DF8243009A9B4FBF2F57E
:1050600002FB1546F3B2092E94BF30333733DBB25F
:10507000A24201F8013D03D9FFF7C4FF0AB070BD99
:105080002C46EBE7D2B2FFF7DFBF0A2AF8B5054698
:105090000E4617460DD100290BDA03682D219B68B7
:1050A00098473A46044671422846FFF7CDFF204410
:1050B000F8BD3A4631462846BDE8F840FFF7C4BF80
:1050C000D2B2FFF7E2BF00F083B808B500F0E5F810
:1050D00000BF08BD10B5FFF7F6FFFFF7B1FD054BA8
:1050E0000BB1FBF7CDF9044C0CB1FBF773FAFFF7EA
:1050F000ECFFF9E781040000D505000000F01EB9BF
:1051000072B614481449154A914204D250F8043B2F
:1051100041F8043BF8E7124812494FF00002884278
:1051200002D240F8042BFAE700F0CEF800F0E2F8E3
:1051300062B6FFF7CFFFFEE7FEE7FEE7FEE7FEE71A
:10514000FEE7FEE7FEE7FEE7FEE7FEE7FEE7FEE737
:1051500070470000B05A00000000002068000020E6
:105160006800002070060020F8B50027094D0A4CA1
:105170000A4E2B783BB123682BB12760BFF34F8FCA
:105180006B6803B198470434B44205F10805F0D1C7
:10519000F8BD00BF1806002000A10D5020A10D5041
:1051A000024B1B780BB1FFF7DFBF7047580600209A
:1051B000024B1B780BB1FFF7D7BF70475806002092
:1051C000024A136801331360704700BF5C06002079
:1051D00008B500F063F80A4B00211B68B3F57A7F2D
:1051E0002ABF4FF47A724FF47A43B3FBF2F3054AC5
:1051F000013B1160536007239160136008BD00BF3D
:105200000000002010E000E0014B1868704700BF6C
:105210005C06002010B50D4A0D4C2168906823688B
:105220009942FAD153680B4A01331B1A10680A4A93
:105230000A4CB0FBF2F2A04298BF40224FF47A70C1
:10524000B3FBF2F300FB013010BD00BF10E000E043
:105250005C0600200000002040420F003F420F008B
:1052600070B50546054C266823689B1BAB4200D3EE
:1052700070BD00F012F800BFF6E700BF5C0600202A
:1052800038B50446FFF7C6FF0546FFF7C3FF431BCB
:10529000A34200D338BD00BFF7E77047064B07496C
:1052A000D3F80428064B02F00302012A18BF0B466C
:1052B000044A1360704700BF000012500090D003F2
:1052C0000020A107000000200322084BC3F800289B
:1052D000074AD3F8041801F00301032901D0013A69
:1052E00001D1FFF7DBBF00BFF3E700BF00001250A2
:1052F00041420F0070B50D4D00260D4C641BA410EB
:10530000A64209D10B4D00260B4C00F09FF8641B00
:10531000A410A64205D170BD55F8043B013698474C
:10532000EEE755F8043B01369847F2E76454000075
:10533000645400006454000070540000024B0146A5
:10534000186800F027B800BF0400002030B501390C
:105350000024A24201D1002005E0035D01340D5D6F
:10536000AB42F6D0581B30BD0A44431E914200D1D7
:10537000704710B511F8014B914203F8014FF9D174
:1053800010BD02440346934200D1704703F8011B4D
:10539000F9E7000038B50546002945D051F8043C2E
:1053A0000C1F002BB8BFE41800F042F81F4A136826
:1053B000104633B9636014602846BDE8384000F0F9
:1053C0003DB8A3420BD921686218934202BF1A6804
:1053D0005B685218636008BF22600460ECE71A46FD
:1053E0005B680BB1A342FAD911685018A0420BD1E7
:1053F00020680144501811608342DDD118685B6851
:10540000014453601160D7E702D90C232B60D3E726
:10541000206821188B4202BF19685B680918636015
:1054200008BF21605460C7E738BD00BF6006002098
:10543000014800F009B800BF68060020014800F0EC
:1054400004B800BF6806002070477047F8B500BF79
:10545000F8BC08BC9E467047F8B500BFF8BC08BC55
:045460009E467047AD
:0C54640025040000F9080000914F000032
:045470000104000033
:105474005B74726163655D20004F4B000D0A426CE2
:105484006550616972696E67456E6372797074699B
:105494006F6E5374617475732073746172740D0A42
:1054A40000424C452073746570206661696C6564C4
:1054B4003A20626567696E0D0A00424C4520737498
:1054C4006570206661696C65643A2073657444652F
:1054D40076696365416464726573730D0A005835B7
:1054E400342D5041495200424C452073746570205C
:1054F4006661696C65643A207365744164766572AB
:10550400746973696E67506475547970650D0A0027
:105514005835342D504149522D5343414E00424C8D
:10552400452073746570206661696C65643A207304
:1055340065744164766572746973696E674E616DF2
:10554400650D0A005835342050616972696E672010
:1055540050726F626500424C45207374657020661A
:1055640061696C65643A207365745363616E526556
:1055740073706F6E73654E616D650D0A00424C4524
:105584002073746570206661696C65643A20736584
:1055940074476174744465766963654E616D650D25
:1055A4000A00424C452073746570206661696C651D
:1055B400643A2073657447617474426174746572EB
:1055C400794C6576656C0D0A00424C4520696E691C
:1055D400743A2000506169722066726F6D207068A1
:1055E4006F6E6520616E6420776174636820656EF8
:1055F4006372797074696F6E20737461746520745A
:1056040072616E736974696F6E732E0D0A004F4672
:105614004600424C45206E6F742072656164793B8C
:1056240020736B697070696E67206164766572744B
:105634006973652F706F6C6C0D0A00646973636F16
:105644006E6E65637465640D0A00616476657274D8
:105654006973696E670D0A00636F6E6E65637465C6
:105664006420706565723D0020696E743D00656E4E
:105674006372797074696F6E3D002063653D006CE0
:105684006C5F6374726C206F703D307800206E65BF
:10569400773D002074785F6F6B3D002074785F6CF9
:1056A4006C69643D002074785F6C656E3D00207405
:1056B400785F6F703D3078006C696E6B2074657232
:1056C4006D696E617465640D0A0002005100155421
:1056D400DEC05B424C455D2000534D505F50414954
:1056E40052494E475F4641494C4544004C4C5F5239
:1056F400454A4543545F50494E5F4F525F4B4559AD
:105704005F4D495353494E47004C4C5F52454A45FF
:1057140043545F50524F4345445552455F434F4CA9
:105724004C4953494F4E004C4C5F52454A454354F3
:105734005F434F4D4D414E445F444953414C4C4FA0
:10574400574544004C4C5F52454A4543545F554EBF
:10575400535550504F525445445F46454154555259
:1057640045004C4C5F52454A4543545F4D414C46BD
:105774004F524D454400424F4E445F4C4F414445C7
:105784004400424F4E445F5052494D454400434FFC
:105794004E4E454354454400424F4E445F53415698
:1057A400454400534D505F50414952494E475F466E
:1057B40041494C45445F525800534D505F50414954
:1057C40052494E475F524551554553545F52580014
:1057D400534D505F434F4E4649524D5F525800530C
:1057E4004D505F52414E444F4D5F525800534D50FF
:1057F4005F454E435F494E464F5F525800534D50EC
:105804005F4D41535445525F49445F5258004C4CDC
:105814005F454E435F5245515F41434345505445B4
:1058240044004C4C5F53544152545F454E435F52C5
:1058340045515F4143434550544544004C4C5F50EF
:10584400415553455F454E435F5245515F41434384
:105854004550544544004C4C5F53544152545F45A9
:105864004E435F5253505F5258004C4C5F50415569
:1058740053455F454E435F5253505F52580044496D
:1058840053434F4E4E454354005355504552564989
:1058940053494F4E5F54494D454F55540045565456
:1058A4005F52585F54494D454F555400454E435F30
:1058B40052585F53484F52545F50445500454E432D
:1058C4005F52585F4D49435F4641494C0045565429
:1058D4005F54585F54494D454F5554005849414F02
:1058E4002D6E524635344C313500000000A0105066
:1058F40000820D5000040550010000280200032816
:105904000300002A040003280500012A06000328D6
:105914000700042A08000028090003280A00052AB1
:105924000B00022910000028110003281200192A74
:1059340013000229020002000300002A04000200EE
:105944000500012A060002000700042A09002000BD
:105954000A00052A110012001200192A010007008A
:10596400001808000B000118100013000F180001A4
:10597400020408102040801B36637C777BF26B6F37
:10598400C53001672BFED7AB76CA82C97DFA594769
:10599400F0ADD4A2AF9CA472C0B7FD9326363FF7F6
:1059A400CC34A5E5F171D8311504C723C318960585
:1059B4009A071280E2EB27B27509832C1A1B6E5AE0
:1059C400A0523BD6B329E32F8453D100ED20FCB180
:1059D4005B6ACBBE394A4C58CFD0EFAAFB434D3358
:1059E4008545F9027F503C9FA851A3408F929D3872
:1059F400F5BCB6DA2110FFF3D2CD0C13EC5F97445B
:105A040017C4A77E3D645D197360814FDC222A9020
:105A14008846EEB814DE5E0BDBE0323A0A4906240F
:105A24005CC2D3AC629195E479E7C8376D8DD54EED
:105A3400A96C56F4EA657AAE08BA78252E1CA6B489
:105A4400C6E8DD741F4BBD8B8A703EB5664803F60D
:105A54000E613557B986C11D9EE1F8981169D98E3A
:105A6400949B1E87E9CE5528DF8CA1890DBFE642A1
:105A74006841992D0FB054BB1600000000A01050CF
:105A840000820D50000405500000000000000000DA
:105A9400554C0000574C00003D4D00004B4F00009A
:0C5AA400674F0000454C0000534C000010
:105AB0000090D0030800002000000000000000005B
:105AC00000000000000000000000000000000000D6
:105AD00000000000000000000000000000000000C6
:105AE00000000000000000000000000000000000B6
:105AF00000000000000000000000000000000000A6
:105B00000000000000000000000000000000000095
:085B100000000000000000008D
:0400000300005101A7
:00000001FF
